:0C00000055C0FECFFDCFFCCFFBCFFACFE8
:10000C00F9CFF8CFF7CFF6CFF5CF79C0F3CFF2CF4A
:10001C00F1CFF0CFEFCFEECFEDCF1027E803640098
:10002C000A000100001000011000010000003C005B
:10003C003E0001000200030004000500060007005A
:10004C000400000001002D4E414E00494E460000B8
:10005C0001000200380001008A013A0001008C0105
:10006C003C00010092013E0001009401400001009F
:10007C009601420001009801440001009A014600DB
:10008C0001009C01480001009E014A000100A001F2
:10009C004C0002000C004E000100BA0150000000A0
:1000AC00F894EE27ECBBF1E0FBBFEBBFE5BFF8E14A
:1000BC00F1BDE1BD8DE0A2E0BB27ED938A95E9F798
:1000CC0080E094E0A0E6ED930197E9F7ECE5F0E031
:1000DC0085919591009761F0A591B591059015903A
:1000EC00BF01F00105900D920197E1F7FB01F0CFF4
:1000FC00EFE5EDBFE4E0EEBFC0E6D1E08BC0EA93E4
:10010C00FA93EFB7EA93C1D21BB10CB1E12FEC71AA
:10011C0089F4E72D739416D2E059FE4F0083E8E082
:10012C00E71509F477249394E8E0E91519F4992478
:10013C00689420F8B2D2E991EFBFF991E991189542
:10014C00E881E066E7B985E38A95F1F7369A349B46
:10015C00FECF349AE5B1EBC198D200E010E0083044
:10016C00E0E01E0754F4F801AAEAB1E0EDD1E0E0BA
:10017C00F0E0EFD10F5F1F4FF2CF8FD2089585D2F1
:10018C00AC81BD8175D28F01AA81BB8171D2AC814A
:10019C00BD81DFD1AA81BB810D931C937BD22696A6
:1001AC00089571D200E010E0EC81FD8131970E17BB
:1001BC001F076CF520E030E0AC81BD81A01BB10BBA
:1001CC00E1E0F0E059D2EA1BFB0B2E173F07E4F4F9
:1001DC00F901AE81BF81B8D10D901C90F901319617
:1001EC00AE81BF81B1D144D2E015F10554F4F901CF
:1001FC00AE81BF81B1D1F9013196A885B985ACD159
:10020C00BEDF2F5F3F4FD8CF0F5F1F4FCDCF40D2F8
:10021C002896089559D1E0E0A6D194D1E0937801C5
:10022C00F0937901E1E09FD1AAE7B1E09ED1E2E041
:10023C009AD1ACE7B1E099D1E3E095D1AEE7B1E06A
:10024C0094D1E4E090D1A0E8B1E08FD1E5E08BD17E
:10025C00A2E8B1E08AD1E6E086D1A4E8B1E085D18C
:10026C00E7E081D1A6E8B1E080D181D186D18CF4D0
:10027C008AD1A0E6B1E0EE0FFF1FEA0FFB1F0F01C2
:10028C0082D1A8E7B1E060D1F3D1D00162D180D1A5
:10029C00EDCFE0E6F1E084D1E8E0F0E081D181DF60
:1002AC00A0908001B09081017ED17AD181D185D18D
:1002BC008BD183D18ED181D191D17FD194D17DD16C
:1002CC0097D16ED136D1E0938E01F0938F0195D1F9
:1002DC00A436E0E0BE0718F17CD194D111F496D18C
:1002EC001DC072D18FD111F496D118C077D18AD19B
:1002FC0011F496D113C05CD185D111F496D10EC0F6
:10030C0072D180D111F496D109C04DD17BD111F4A9
:10031C0096D104C06DD176D109F496D101C099D192
:10032C00E0918A01EA93FFD0E0918C01EA93FBD033
:10033C00CA92F9D0A0918001B0918101AE36E0E073
:10034C00BE0718F063D1CA9203C0E0919001EA9302
:10035C00EAD002DF0CD111D10CF0B4C014D1A0E65C
:10036C00B1E0F2D085D1E093A601F093A701E0E0D3
:10037C00E093A401E093A50171D118970CF09EC0F5
:10038C00E091A401F091A501A8E7B1E0DDD070D116
:10039C00E093A801F093A901E091A801F091A901C3
:1003AC0062D1EA17FB0729F45ED1A536E0E0BE075F
:1003BC000CF47BC053D1149731F4E091B201F0915D
:1003CC00B301309709F007C0C090A001D090A101F3
:1003DC00E2EBF1E065C042D1139731F4E091B0014A
:1003EC00F091B101309709F004C010D1E0EBF1E0CD
:1003FC0057C034D1129731F4E091AE01F091AF01B6
:10040C00309709F004C007D1EEEAF1E049C026D1DB
:10041C00159731F4E091B401F091B501309709F0E2
:10042C0004C0FED0E4EBF1E03BC018D1119731F4DD
:10043C00E091AC01F091AD01309709F004C0F5D01A
:10044C00ECEAF1E02DC00AD1169731F4E091B60137
:10045C00F091B701309709F004C0ECD0E6EBF1E075
:10046C001FC0FCD0109731F4A091AA01B091AB0140
:10047C00109709F008C0E3D0E1E0F0E0E093AA01A6
:10048C00F093AB0111C0EAD0179731F4E091B801A9
:10049C00F091B901309709F007C0D6D0E8EBF1E044
:1004AC00A1E0B0E0A083B18309C0D3D0A4EAB1E04D
:1004BC00ED91FD913196FE93EE935ECFCA9233D0BF
:1004CC0067D049CFA8CEFFCFE0E0E8BBE7BBE5BBE8
:1004DC00E4BBE2BBE1BBE3BFE2BFEFBDEEBDEDBDF4
:1004EC00ECBDE7BDE6BDEBBDEABDE9BDE8BDE2BDD7
:1004FC00E5BDE4BDE3BDE5BFE9BFEBB9E8E9EAB9A9
:10050C00E6E8E0BDE0E0E0BDE7E6E9B9E0E8E8B93F
:10051C00E0E0E0BFE0E6E7B9E4E8E6B9E0E0EDB939
:10052C00E6BF789408955D9BFECFE881ECB92196E7
:10053C000895A991B991E991F991AE17BF070CF003
:10054C00FD010895F0E00895EE0FFF1FAE0FBF1FE1
:10055C000895ED93FC930895EE0FFF1FEA0FFB1F18
:10056C00FA93EA930895EA93EBCDECDFF2CFE0E057
:10057C00E093A201E093A3010895A091A201B09190
:10058C00A30118970895E091A201F091A301089599
:10059C00A2EAB1E0ED91FD913196FE93EE930895B0
:1005AC00FA93EA930895E0917801F0917901089516
:1005BC00E0917A01F0917B010895F2DFBADFE093CC
:1005CC008E01F0938F01ECCFE0917C01F0917D01D5
:1005DC000895E0917E01F0917F010895E0918201F0
:1005EC00F09183010895E0918401F09185010895C3
:1005FC00E0918601F09187010895A0918E01B09150
:10060C008F010895FADFEA17FB070895C09098014F
:10061C00D09099010895C0909601D09097010895BB
:10062C00C0909A01D0909B010895C0909401D090F5
:10063C0095010895C0909C01D0909D010895C090A3
:10064C009201D09093010895C0909E01D0909F018B
:10065C000895C0909001D09091010895A091A401AB
:10066C00B091A5010895A091A601B091A70108959C
:10067C00ED91FC91119708951B2EBF2FF12D1A2E81
:10068C00AE2FE12D08953A932A931A930A93089565
:10069C003B812A8119810881089509911991089546
:00000001FF
