:0E00000072C0FECFFDCFFCCFFBCFFACFF9CF01
:10000E00F8CFE2C0F6CFF5CF96C0F3CFF2CFF1CF57
:10001E00F0CFEFCFEECFEDCF1027E80364000A004C
:10002E000100001000011000010000004107B401A2
:10003E00AA0028003C003E007C0029002A002B006C
:10004E002C002D002E0035005E00530041004200B2
:10005E0058005E004100420043005A00580046001E
:10006E004700480049004A004B004D004C00FE007E
:10007E00520053000100D0073F0C52000000000058
:10008E00000000000000000001002D4E414E00490E
:10009E004E460000010002003800020064013A00E2
:1000AE00020066013C00010068013E0001006A0189
:1000BE00400001006C01420001006E01440001008D
:1000CE00700160000100A601880002000400940087
:1000DE000100CF0196000000F894EE27ECBBF1E092
:1000EE00FBBFEBBFE5BFF8E1F1BDE1BD8DE0A2E0E6
:1000FE00BB27ED938A95E9F780E094E0A0E6ED93B7
:10010E000197E9F7E2EAF0E085919591009761F0A9
:10011E00A591B59105901590BF01F00105900D9236
:10012E000197E1F7FB01F0CFEFE5EDBFE4E0EEBFA5
:10013E00C0E6D1E066C0AA93EA93FA93EFB7EA93CA
:10014E0093D71BB10CB1E12FEC71D1F4E091CC013E
:10015E00EF5FE093CC01E7D50083A091CC01A830EE
:10016E0019F4E0E0E093CC01A091CE01AF5FA09333
:10017E00CE01A83029F4E0E0E093CE01689420F897
:10018E007DD7E991EFBFF991E991A99118951A934D
:10019E00E091CE01E030E1F3E091CD01EF5FE0932D
:1001AE00CD01C1D51081A091CD01A83019F4E0E0A8
:1001BE00E093CD01F894E091CE01E150E093CE01B1
:1001CE007894E12F19910895AA93BA93EA93FA932A
:1001DE00EFB7EA93A6E8B1E0ABD5E991EFBFF9919D
:1001EE00E991B991A9911895AA93E881E066E7B9CA
:1001FE0085E38A95F1F7369A349BFECF349AE5B1B2
:10020E0040C005D09BD53FD08AD0FECFFFCFE7E0D0
:10021E00E8BBE7BBE0E0E5BBE4BBE8E3E2BBE1BB88
:10022E00E0E0E3BFE2BFEFBD8CD5E0E0EDBDECBD9D
:10023E00E7BDE6BDEBBDEABDE9BDE8BDE2BDE5BD8E
:10024E00E4BDE3BDE5BFE4E0E9BFE0E0EBB9E8E91A
:10025E00EAB9E6E8E0BDE0E0E0BDE7E6E9B9E0E8EE
:10026E00E8B9E0E0E0BFE0E6E7B9E5E8E6B9E0E0EE
:10027E00EDB9E6BF78940895AA935D9BFECFE88111
:10028E00ECB921960895BA93AA93E881F981309733
:10029E0011F4C098C198A881B981119711F4C09832
:1002AE00C19AA881B981129711F4C09AC198A881F8
:1002BE00B981139711F4C09AC19A2296089504D069
:1002CE0010D019D022D00895C2983ED547D5E093CC
:1002DE008801F09389014BD5E0918801F091890155
:1002EE000895C29A4FD53AD5E0938A01F0938B01C7
:1002FE003ED552D50895C29845D530D5E0938C01A0
:10030E00F0938D0134D54DD50895C29A1DD526D5BD
:10031E00E0938E01F0938F012AD548D5089537DFEB
:10032E00A8E9B1E048D549D5A0919801B0919901BD
:10033E00E0917001F091710143D569F044D5E093DD
:10034E009601F0939701E0919801F0919901E09355
:10035E009401F093950137D5E134A0E0FA0709F046
:10036E0062C036D53ED543D56CF041D55CF0E091F8
:10037E007C01F0917D0143D5E0937C01F0937D01EA
:10038E0041D5F3CF42D5A0917C0142D543D56CF037
:10039E0041D55CF0E0917E01F0917F0130D5E09384
:1003AE007E01F0937F012ED5F3CF2FD5A0917E0144
:1003BE002FD538D56CF036D55CF0E0918001F091F8
:1003CE0081011DD5E0938001F09381011BD5F3CF00
:1003DE001CD5A09180011CD52DD56CF02BD55CF0D1
:1003EE00E0918201F09183010AD5E0938201F093AE
:1003FE00830108D5F3CF09D5A091820109D522D565
:10040E006CF020D55CF0E0919201F0919301F7D45D
:10041E00E0939201F0939301F5D4F3CFF6D4A0912B
:10042E0092012ADFE8C1E234A0E0FA07D9F40DD335
:10043E00CFD4A091AA0120DFA091AC011DDFA09125
:10044E00AE011ADFA091B00117DFA091B20114DF47
:10045E00A091B401FFD4A09168010EDFA0916A01B2
:10046E000BDFC9C1E334A0E0FA0721F4F7D4A42DC1
:10047E00F1D4C1C1E235A0E0FA0759F4A0916C01A4
:10048E00FBDEA0916E01F8DEA42DF6DEA0E0F4DE18
:10049E00B2C1E335A0E0FA0721F4E0D4A0E0DAD44B
:1004AE00AAC1EA35A0E0FA07A1F409DF75D4A0E0ED
:1004BE00B0E0BDD576D4A2E0B0E0B9D577D4A4E053
:1004CE00B0E0B5D5E0919001F0919101A6E0B0E0D9
:1004DE0091C1E835A0E0FA0711F4EDD38CC1E634F2
:1004EE00A0E0FA0729F4609092017090930183C105
:1004FE00E734A0E0FA0729F48090920190909301DE
:10050E007AC1E834A0E0FA0729F4A0909201B090E5
:10051E00930171C1E934A0E0FA0709F046C1F30175
:10052E00EA19FB09A2D4A937E5E0BE0724F0F501CC
:10053E00E259FA4FCBC0A2D4A734E5E0BE0724F0AF
:10054E00F501E45CFA4FC2C099D4A531E5E0BE07CF
:10055E0024F0F501E65FFA4FB9C090D4A33EE4E073
:10056E00BE0724F0F501E852FB4FB0C087D4A13B83
:10057E00E4E0BE0724F0F501EA55FB4FA7C07ED498
:10058E00AF37E4E0BE0724F0F501EC58FB4F9EC0F8
:10059E0075D4AD34E4E0BE0724F0F501EA55FB4F07
:1005AE0095C06CD4AB31E4E0BE0724F0F501E05FFA
:1005BE00FB4F8CC063D4A93EE3E0BE0724F0F501E7
:1005CE00E252FC4F83C05AD4A73BE3E0BE0724F0AF
:1005DE00F501E455FC4F7AC051D4A538E3E0BE07CF
:1005EE0024F0F501E658FC4F71C048D4A335E3E082
:1005FE00BE0724F0F501E85BFC4F68C03FD4A13282
:10060E00E3E0BE0724F0F501EA5EFC4F5FC036D48E
:10061E00AD3BE2E0BE0724F0F501EE54FD4F56C0AF
:10062E002DD4A935E2E0BE0724F0F501E25BFD4FC3
:10063E004DC024D4A53FE1E0BE0724F0F501E651FC
:10064E00FE4F44C01BD4A33CE1E0BE0724F0F501ED
:10065E00E854FE4F3BC012D4A139E1E0BE0724F0AE
:10066E00F501EA57FE4F32C009D4AF35E1E0BE07BF
:10067E0024F0F501EC5AFE4F29C000D4AD32E1E072
:10068E00BE0724F0F501EE5DFE4F20C0FCD324F032
:10069E00F501E051FF4F1AC0FBD324F0F501E254EF
:1006AE00FF4F14C0FAD324F0F501E457FF4F0EC0EC
:1006BE00F9D324F0F501E65AFF4F08C0DFD3D397E4
:1006CE001CF0F501B89602C0F5017E96E093640128
:1006DE00F0936501F501E819F909C7D3A332E1E0FA
:1006EE00BE0724F0F401E85EFE4F5AC0C7D3A9310D
:1006FE00E1E0BE0724F0F401E25FFE4F51C0BED32D
:10070E00AF30E1E0BE0724F0F401EC5FFE4F48C0CD
:10071E00B5D3A530E1E0BE0724F0F401E650FF4F5B
:10072E003FC0B1D324F0F401EF51FF4F39C0A6D32F
:10073E00A23EE0E0BE0724F0F401E853FF4F30C0C4
:10074E00A7D324F0F401E155FF4F2AC097D3A03B65
:10075E00E0E0BE0724F0F401EA56FF4F21C09DD31E
:10076E0024F0F401E358FF4F1BC088D3AE37E0E00E
:10077E00BE0724F0F401EC59FF4F12C093D324F0BE
:10078E00F401E55BFF4F0CC079D3AC34E0E0BE075B
:10079E001CF0F401F29604C071D3D397F40179964C
:1007AE00E0936601F093670126C0EA34A0E0FA07F1
:1007BE0011F493D120C0EB34A0E0FA0711F4A4D1C8
:1007CE001AC0ED34A0E0FA0711F46DD114C0EC3468
:1007DE00A0E0FA0711F4B2D10EC0EE3FA0E0FA0786
:1007EE0051F4D5DCA0E0B0E0E6D221D4D0DCA2E01A
:1007FE00B0E0E1D21CD40895BA93AA932A978AE066
:10080E0056D3EAE8F0E03DD42DD454D320E030E0C6
:10081E00EE85FF85309771F54DD34FD354F451D3F8
:10082E00FF93EF93A2E0E0DCAF91BF9152D353D38D
:10083E00F4CF54D3E093AA01F093AB0167D36BD3FB
:10084E006FD31CF0E1E0F0E00CC06DD364D3B8D2EE
:10085E0034F0E0E0E093B801E093B90106C0E2E0C5
:10086E00F0E0E093B801F093B901E091AA01F091A4
:10087E00AB01E8C0E130A0E0FA0751F51BD31DD360
:10088E0054F41FD3FF93EF93A1E0AEDCAF91BF9171
:10089E0020D321D3F4CF22D3E093AC01F093AD015A
:1008AE0047D34BD324F0EAEBF1E049D30AC040D34F
:1008BE0049D324F0EAEBF1E0FAD203C0EAEBF1E01F
:1008CE0043D3A083B183E091AC01F091AD01BAC0E6
:1008DE00E230A0E0FA0751F5EDD2EFD254F4F1D2A6
:1008EE00FF93EF93A0E080DCAF91BF91F2D2F3D2F1
:1008FE00F4CFF4D2E093AE01F093AF0128D31DD321
:10090E0024F0ECEBF1E01BD30AC021D31BD324F06F
:10091E00ECEBF1E0CCD203C0ECEBF1E015D3A0830D
:10092E00B183E091AE01F091AF018CC0E330A0E055
:10093E00FA0769F5BFD2C1D254F4C3D2FF93EF9335
:10094E00A5E052DCAF91BF91C4D2C5D2F4CFC6D2CE
:10095E00E093B001F093B101FFD2EFD23CF0E1E0B1
:10096E00F0E0E093B801F093B9010CC0F5D2EAD2F1
:10097E0024F0EEEBF1E09BD203C0EEEBF1E0E4D21B
:10098E00A083B183E091B001F091B1015BC0E4307E
:10099E00A0E0FA0751F58ED290D254F492D2FF9382
:1009AE00EF93A4E021DCAF91BF9193D294D2F4CF18
:1009BE0095D2E093B201F093B301D3D2BED224F01C
:1009CE00E0ECF1E0BCD20AC0CCD2BCD224F0E0EC18
:1009DE00F1E06DD203C0E0ECF1E0B6D2A083B183BA
:1009EE00E091B201F091B3012DC0E530A0E0FA071D
:1009FE0049F560D262D254F464D2FF93EF93A3E030
:100A0E00F3DBAF91BF9165D266D2F4CF67D2E0939C
:100A1E00B401F093B501AAD290D224F0E2ECF1E049
:100A2E008ED20AC0A3D28ED224F0E2ECF1E03FD2F5
:100A3E0003C0E2ECF1E088D2A083B183E091B4016F
:100A4E00F091B50116D36096089595D297D299D2AA
:100A5E0075D1D2DEA4E098D2A5E096D297D21197A6
:100A6E0041F099D2319729F09BD2E130A0E0FA07FC
:100A7E0021F4E1E0F0E099D215C088D2129749F046
:100A8E008AD2329729F48CD2E230A0E0FA0709F02C
:100A9E0004C0E2E0F0E089D205C0E0E0E093B601E8
:100AAE00E093B701089586D28F0168D29F0169D273
:100ABE00AF01021713071CF00E831F8302C02E8393
:100ACE003F837BD24E175F0714F04E835F8375D240
:100ADE00E0936201F093630123C16CD28F014ED279
:100AEE009F014FD2AF01021713071CF02E833F83D5
:100AFE0002C00E831F8361D24E175F071CF05DD2BA
:100B0E00EE83FF836A010CC155D28F0137D29F014C
:100B1E0038D2AF01201731071CF00E831F8302C09D
:100B2E002E833F834AD2E417F50714F04E835F837A
:100B3E0044D2E0936001F0936101F2C0249790D209
:100B4E004091600150916101C886D986E0916201A1
:100B5E00F0916301EE83FF83A885B985FA01EA1B44
:100B6E00FB0B8F01AE81BF812BD2EA1BFB0B9F01CA
:100B7E000035E0E01E0724F023D2E55BFF4F40C0B6
:100B8E000B34E0E01E0724F01BD2EA5BFF4F38C0A7
:100B9E000634E0E01E0724F013D2EF5BFF4F30C0A7
:100BAE000134E0E01E071CF00BD2FC9629C00C337A
:100BBE00E0E01E071CF004D2F79622C00233E0E0FC
:100BCE001E071CF0FDD1BD961BC00832E0E01E07CB
:100BDE001CF0F6D1B39614C00E31E0E01E071CF0E7
:100BEE00EFD179960DC00431E0E01E071CF0E8D17C
:100BFE003F9606C00A30E0E01E0734F0E1D137968A
:100C0E00E0936801F09369012035E0E03E0724F09F
:100C1E00D7D1EB54F04040C02B34E0E03E0724F037
:100C2E00CFD1E654F04038C02634E0E03E0724F041
:100C3E00C7D1E154F04030C02134E0E03E071CF053
:100C4E00BFD1FC9729C02C33E0E03E071CF0B8D191
:100C5E00F79722C02233E0E03E071CF0B1D1BD97DA
:100C6E001BC02832E0E03E071CF0AAD1B39714C097
:100C7E002E31E0E03E071CF0A3D179970DC0243150
:100C8E00E0E03E071CF09CD13C9706C02A30E0E025
:100C9E003E0734F095D13097E0936A01F0936B01E3
:100CAE0035D1A0E0B0E0C3D13ED1A2E0B0E0BFD1DB
:100CBE00DED12A9608952297D3D100916401109126
:100CCE006501209166013091670140916801509154
:100CDE00690129D1EE83FF837BD083D00030E1E020
:100CEE001E0744F00030E1E01E0724F00F5F1040B5
:100CFE0089D0F8CF8AD0A02F8BD02030E1E03E07EC
:100D0E0044F02030E1E03E0724F02F5F30407AD0EF
:100D1E00F8CF7BD0A22FB0DAA42FAEDAAE81ACDA48
:100D2E00A6D128960895E150F0E0EC53FE4F0895B9
:100D3E00ED91FD913196FE93EE930895A3E0B0E010
:100D4E000895E0E0EEBD0895AB98A5E0B0E03BD18C
:100D5E00E6E0EEBDA5E0B0E036D1F3CFF09186012E
:100D6E00E0E0DF01ECB5FDB5EA0FFB1F0895E0E012
:100D7E00F0E0FDBDECBDE0938601E0938701AAE0B3
:100D8E00B0E021C1AB9AA5E0B0E01DD1E6E0EEBD2A
:100D9E00A5E0B0E018D1D5CFE0918A01F0918B019A
:100DAE000895E0918C01F0918D010895E0918E01EE
:100DBE00F0918F010895F0E00895ED93FC9308955E
:100DCE00EA17FB070895E0919401F09195010895BB
:100DDE00A0916C0151DAA0916E014EDAA091A6019C
:100DEE004BCAE0E0E093A801E093A9010895A09119
:100DFE007C01B0917D01A030E1E0BE070895EF5F68
:100E0E00F0400895A8EAB1E093CFA091A80134CAAA
:100E1E0033DAE7CFA0917E01B0917F01A030E1E0FF
:100E2E00BE070895A0918001B0918101A030E1E04C
:100E3E00BE070895A0918201B0918301A030E1E038
:100E4E00BE070895A0919201B0919301A030E1E008
:100E5E00BE07089511DAA091B6010ECAF6DDA09173
:100E6E006C010ADAA0916E0107CAE093A401F09317
:100E7E00A501A091A401B091A5010895A091A4018E
:100E8E00B091A5010895FADFAB3FE0E0BE070895EB
:100E9E00F5DFA93CE0E0BE070895F0DFA739E0E0FA
:100EAE00BE070895EBDFA536E0E0BE070895A0E08B
:100EBE00B0E0089500E010E008950530E0E01E0770
:100ECE000895F801DE011496EE0FFF1FEA0FFB1FC7
:100EDE00089571DF72CF0F5F1F4F0895EE81FF816E
:100EEE00AC81BD81EA0FFB1FA885B985EA0FFB1FF8
:100EFE00AA85BB85EA0FFB1FAC85BD85EA0FFB1FDC
:100F0E009F01D901E5E0F0E07FD00895E0916801FE
:100F1E00F09169010895A091AA01B091AB010895D5
:100F2E00AE17BF070895E0916A01F0916B01089525
:100F3E00A091AC01B091AD010895E8DFF1CFA1E031
:100F4E00B0E00895F0DF3CCFA2E0B0E00895A091AC
:100F5E00AE01B091AF010895A091B001B091B10171
:100F6E000895A091B201B091B3010895A091B4017A
:100F7E00B091B5010895A0E0B0E03ECCA1E0B0E0A4
:100F8E003BCCA2E0B0E038CCB0E036CCA091B801BA
:100F9E00B091B9010895E091BA01F091BB010895A5
:100FAE00E091BC01F091BD010895E093B601F0937C
:100FBE00B7010895229754D0DECFEE81FF810895B8
:100FCE00E885F9850895109639F080EA9FE001973B
:100FDE00F1F7A8951197C9F70895F195E195F040AD
:100FEE0008950024112490E1AA0FBB1F001C111CB0
:100FFE000E1A1F0A18F40E0E1F1E01C0A1609A953C
:10100E0099F7FD01D001089504D0EBDF0EF4E5DF72
:10101E000895E894F7FF02C0E0DF6894B7FF06C0BA
:10102E00A095B095119600F8039400FA089507D094
:10103E001196EF93EF2F03D0EF9111970895E19B47
:10104E0002C0A895FCCF9FB7F894AEBBBFBBE09A89
:10105E008DB3E81719F0EDBBE29AE19A9FBF0895A0
:10106E005A934A933A932A931A930A9308955D8159
:10107E004C813B812A81198108810895099119912A
:10108E000895AC0FBD1F05900D928A95E1F7089556
:00000001FF
