:0E00000055C0FECFFDCFFCCFFBCFFACFF9CF1E
:10000E00F8CFF7CFF6CFF5CF76C0F3CFF2CFF1CF53
:10001E00F0CFEFCFEECFEDCF1027E80364000A004C
:10002E0001000010000110000100000000003C0063
:10003E003E00010002000300040005000600070058
:10004E00080001002D4E414E00494E4600000100B1
:10005E000200380002000C003A0001007A013C0058
:10006E0001007C013E00010082014000010084017C
:10007E004200010086014400010088014600010093
:10008E008A01480001008C014A0001008E014C00DB
:10009E00010090014E000100920150000000F89402
:1000AE00EE27ECBBF1E0FBBFEBBFE5BF8DE0A2E0BE
:1000BE00BB27ED938A95E9F780E094E0A0E6ED93F7
:1000CE000197E9F7ECE5F0E085919591009761F0E5
:1000DE00A591B59105901590BF01F00105900D9277
:1000EE000197E1F7FB01F0CFEFE5EDBFE4E0EEBFE6
:1000FE00C0E6D1E02FC0EA93FA93EFB7EA936DD141
:10010E001BB10CB1E12FEC7189F4E72D7394F0E083
:10011E00E05AFE4F0083E8E0E71509F47724939444
:10012E00E8E0E91519F49924689420F809911991D9
:10013E00E991EFBFF991E9911895AA93E881E066EC
:10014E00E7B985E38A95F1F7369A349BFECF349A58
:10015E00E5B11BC1C5D0A2E0B0E0F1D0A0E0EDDF6B
:10016E00F0E0E0936801F0936901A1E0E6DFAAE612
:10017E00B1E018D1A2E0E1DFACE6B1E013D1A3E02B
:10018E00DCDFAEE6B1E00ED1A4E0D7DFA0E7B1E050
:10019E0009D1A5E0D2DFA2E7B1E004D1A6E0CDDF20
:1001AE00A4E7B1E0FFD0A7E0C8DFA6E7B1E0FAD040
:1001BE00A0907001B0907101F9D0FDD0A0916A01AC
:1001CE00B0916B01FBD0A0916C01B0916D01F6D096
:1001DE00A0916E01B0916F01F1D0A0917001B0911C
:1001EE007101ECD0A0917201B0917301E7D0A09192
:1001FE007401B0917501E2D0A0917601B0917701B2
:10020E00C6D0E0937E01F0937F01DED0A436E0E00D
:10021E00BE0708F455C0E0917001F0917101D9D07C
:10022E0029F4C0909001D090910149C0E0916E01E7
:10023E00F0916F01CED029F4C0908801D090890141
:10024E003EC0E0916C01F0916D01C3D029F4C090D5
:10025E008601D090870133C0E0917201F091730155
:10026E00B8D029F4C0908A01D0908B0128C0E091BB
:10027E006A01F0916B01ADD029F4C0908401D09049
:10028E0085011DC0E0917401F0917501A2D029F491
:10029E00C0908C01D0908D0112C088D09AD029F4D4
:1002AE00C0908201D09083010AC0E0917601F09156
:1002BE0077018FD021F4C0908E01D0908F0104C0B1
:1002CE00C0908001D0908101A0917A0159D0A09167
:1002DE007C0156D0AC2D54D0AA2D52D03FCFFFCF9B
:1002EE00E0E0E8BBE7BBE5BBE4BBE2BBE1BBE3BFE1
:1002FE00E2BFEFBDEEBDEDBDECBDE7BDE6BDEBBDB6
:10030E00EABDE9BDE8BDE2BDE5BDE4BDE3BDE5BFC7
:10031E00E9BFEBB9E8E9EAB9E6E8E0BDE0E0E0BD47
:10032E00E7E6E9B9E0E8E8B9E0E0E0BFE0E6E7B922
:10033E00E4E8E6B9E0E0EDB9E6BF78940895BA9343
:10034E00AA93B39903C0E1E0F0E004C0B39B03C0ED
:10035E00E2E0F0E02F01E881F981E130A0E0FA0758
:10036E0019F4E0E0E0BD07C0E230A0E0FA0721F4A6
:10037E00E0E0E0BDE7E6E9B9F894789422960895B6
:10038E00AA935D9BFECFE881ECB921960895BA93AE
:10039E00AA93A991B991E991F991AE17BF070CF003
:1003AE00FD010895F0E0ED93FC930895E09168014E
:1003BE00F09169010895FA93EA930895E8DFE093C6
:1003CE007E01F0937F01F7CFA0917E01B0917F0166
:1003DE000895FADFEA17FB0708951A930A93089512
:00000001FF
