:020000040800F2
:10000000C0520020F1560008ED560008ED560008D9
:10001000ED560008ED560008ED56000800000000FF
:10002000000000000000000000000000ED56000885
:10003000ED56000800000000ED56000819530208B4
:10004000ED560008ED560008ED560008ED56000884
:10005000ED560008ED560008ED560008ED56000874
:10006000ED560008ED560008ED560008ED56000864
:10007000ED560008ED560008ED560008ED56000854
:10008000ED560008ED560008ED560008ED56000844
:10009000ED560008ED560008ED560008ED56000834
:1000A000ED560008ED560008ED560008ED56000824
:1000B0008D720008394B0208ED560008ED56000815
:1000C000ED560008ED560008ED560008ED56000804
:1000D000ED560008A50D00086907000881610008B9
:1000E000ED560008ED560008ED560008ED560008E4
:1000F000ED560008ED560008ED560008ED560008D4
:10010000ED560008ED56000821560008ED5600088F
:10011000D10B0008ED56000899090008ED560008BB
:10012000ED560008ED560008ED560008ED560008A3
:10013000ED560008ED560008ED560008ED56000893
:10014000ED560008ED560008ED560008ED56000883
:10015000ED560008ED560008ED560008210F000886
:10016000ED560008ED560008ED560008ED56000863
:10017000ED560008ED560008ED560008ED56000853
:10018000ED560008ED5600082DE9F84381464FF47E
:100190000030012105F052FF0120014605F040FF2B
:1001A0001E494FF00C08C1F8008002270F714F71F3
:1001B00000258D710124CC71194E304624F07EFF4C
:1001C00030463946072224F0CBFF30460321072270
:1001D00024F0C6FF1349C1F800908D804FF40052FF
:1001E000CA800D818D81A1F80A80A6F5DE363046E1
:1001F00002F060FA304640F22551224602F0D4FA6D
:1002000009482622027045708470C47034F0D6FD0F
:100210003046214602F0B6FABDE8F883DC1B002028
:1002200000000240E41B00206C1C002010B50446B6
:10023000034802F0E1F90348FFF7A6FF204610BD8E
:100240000014014040420F00F8B505460F468021DA
:1002500002F0CCFA214C802615E0013C13D134F099
:100260009FFD0020014634F097FD1D4D1D4B2C468F
:100270000FCB07C42380284634F082FD4FF0FF30B7
:10028000FFF7D4FFF8BD2846314602F0A9FA00284E
:10029000E3D02846B9B202F083FA104C402615E0AC
:1002A000013C13D134F07CFD0020014634F074FD94
:1002B0000B4D0C4B2C460FCB07C42380284634F043
:1002C0005FFD4FF0FF30FFF7B1FFF8BD2846314624
:1002D00002F086FA0028E3D0F8BD00BFE1930400E5
:1002E000B0150020F0D703082DE9F04F83B0834606
:1002F0001646019389022C4D85FB0135C917D1EBB8
:10030000651518BF05F1FF354FEA252A4FEA122976
:10031000DFF8A08000F1280313444B442B445344DE
:10032000DB4388F80030214F3846022124F014FFC7
:100330001F4C2046FF21FFF787FF2046FF21FFF7D4
:1003400083FF20465946FFF77FFF20460721FFF72E
:100350007BFF20460321FFF777FF20461E21FFF792
:1003600073FF2046E9B2FFF76FFF20465FFA8AF17C
:10037000FFF76AFF2046F1B2FFF766FF20465FFAFB
:1003800089F1FFF761FF204698F80010FFF75CFF46
:10039000019824F0C5FF3846022124F0DFFE4FF01B
:1003A000FF3003B0BDE8F08FB5814E1B000802405E
:1003B000004400407D16002008B5064B1B683BB981
:1003C000044B1860044840F22771012202F0ECF956
:1003D00008BD00BFC4160020004400402DE9F04FC6
:1003E0009BB0C0F30722C0B2C14BFF211960596016
:1003F000FE2199605E21D960832119611E21596116
:1004000004249C61BB49D1F800B04FEA2B25099523
:100410000125DD615FFA8BF51D62099EF5B25D6213
:100420009862DA624F6801974FEA2728CDF8288052
:1004300002251D63FDB25D635FFA88F59D63D86395
:100440001A648D6802952E120B9603255D64029F37
:10045000FDB29D64F5B2DD6418655A65CD680395FB
:100460002E120C969C65ECB2DC65F4B21C665866E4
:100470009A660F6904974FEA2728CDF8348005243F
:10048000DC66FCB21C675FFA88F45C679867DA6721
:100490004C69059425120E950624C3F88040059EEC
:1004A000F4B2C3F88440ECB2C3F88840C3F88C00BF
:1004B000C3F890208F6906974FEA2728CDF83C8033
:1004C0000724C3F89440FCB2C3F898405FFA88F45C
:1004D000C3F89C40C3F8A000C3F8A420CC690794DB
:1004E000251210950824C3F8A840079EF4B2C3F85B
:1004F000AC40ECB2C3F8B040C3F8B400C3F8B820C5
:100500000F6A08974FEA2728CDF844800924C3F8DA
:10051000BC40FCB2C3F8C0405FFA88F4C3F8C440E2
:10052000C3F8C800C3F8CC20D1F824A04FEA2A248D
:1005300012940A24C3F8D0405FFA8AF4C3F8D44076
:10054000129DECB2C3F8D840C3F8DC00C3F8E02039
:10055000D1F828904FEA292613960B24C3F8E440DB
:100560005FFA89F4C3F8E840F4B2C3F8EC40C3F88A
:10057000F000C3F8F420D1F82CC04FEA2C271497D0
:100580000C24C3F8F8405FFA8CF4C3F8FC40FCB2CA
:10059000C3F80041C3F80401C3F80821D1F830E0E2
:1005A0004FEA2E28CDF854800D24C3F80C415FFA91
:1005B0008EF4C3F810415FFA88F4C3F81441C3F80D
:1005C0001801C3F81C214C6B0094251216950E24BB
:1005D000C3F82041009EF4B2C3F82441ECB2C3F842
:1005E0002841C3F82C01C3F830218E6B37121797BE
:1005F0000F24C3F83441F4B2C3F83841FCB2C3F855
:100600003C41C3F84001C3F84421CD6B4FEA252893
:10061000CDF860801024C3F84841ECB2C3F84C41D7
:100620005FFA88F4C3F85041C3F85401C3F8582165
:100630000C6C271219974FF01108C3F85C815FFA10
:1006400084F8C3F86081FFB2C3F86471C3F868012D
:10065000C3F86C21496C4FEA2128019FBB44ABF1E0
:10066000540B029FBB44039FBB44049FBB44059FA4
:10067000BB44069F57FA8BFB079FBB44089FBB44B4
:10068000D344CB445CFA8BFCF444009FBC44B44498
:10069000AC4454FA8CF40C44099D2C440A9E344416
:1006A0000B9F3C440C9D55FA84F40D9E34440E9FE0
:1006B0003C440F9D2C44109E3444119F57FA84F4FF
:1006C000129D2C44139E3444149F3C44159D2C448D
:1006D000169E56FA84F4179F3C44189D2C44199E8C
:1006E00034444444E4B204EB8004044404E000BF16
:1006F0004C170020941B0020E4B204EB8004044457
:10070000E4B204EB8004044450FA84F404EB4004A3
:1007100004EB4204E4B204EB82041444E4B204EBBC
:1007200082041444E4B204EB820414441225C3F896
:100730007051C9B2C3F874115FFA88F1C3F8781127
:10074000C3F87C01C3F8802152FA84F2D243D2B2BA
:1007500004490A70C3F884216120FFF72DFE1BB005
:10076000BDE8F08F7D16002010B51448022124F05A
:10077000F3FC134840F2277102F03CF8C0B1114C71
:1007800023680F48104A32F8231002F009F8236852
:10079000013323600D4A12680132934208D10022CE
:1007A0000A4B1A602260064840F2277101F0FCFFF4
:1007B0000248022124F0D2FC10BD00BF0008024014
:1007C000004400407C1400204C170020C416002078
:1007D00030B4584B584908683C308002574A82FB75
:1007E0000054C017C0EB641018604868963080024F
:1007F00082FB0054C017C0EB6410586088689630C4
:10080000800282FB0054C017C0EB64109860086B34
:10081000C0F1F000800282FB0054C017C0EB6410EE
:100820001863486BC0F19600800282FB0054C01729
:10083000C0EB64105863886BC0F19600800282FBA5
:100840000054C017C0EB6410986388693C30800284
:1008500082FB0054C017C0EB64109861C8699630E1
:10086000800282FB0054C017C0EB6410D861086A94
:100870009630800282FB0054C017C0EB64101862EF
:10088000486AC0F1F000800282FB0054C017C0EB40
:1008900064105862886AC0F19600800282FB00549E
:1008A000C017C0EB64109862C86AC0F1960080025D
:1008B00082FB0054C017C0EB6410D862C8683C309B
:1008C000800282FB0054C017C0EB6410D860086936
:1008D0009630800282FB0054C017C0EB6410186190
:1008E00048699630800282FB0054C017C0EB641048
:1008F0005861C86BC0F1F000800282FB0054C01741
:10090000C0EB6410D863086CC0F19600800282FBD3
:100910000054C017C0EB64101864496CC1F1960113
:10092000890282FB0102C917C1EB62125A6430BC12
:10093000704700BF941B00204C190020B5814E1B4E
:10094000134B144A516A1960916A5960D16A9960CF
:10095000116B1963516B5963916B9963D16B9961F9
:10096000116CD961516C19621168596251689962B0
:100970009168D962D168D960116919615169596169
:100980009169D963D1691964126A5A64704700BFCA
:100990004C190020EC06002038B5604B1B68002B7A
:1009A00040F0B180FFF7CCFF5D4B5E4908683C30FA
:1009B00080025D4A82FB0054C017C0EB64101860CF
:1009C00048689630800282FB0054C017C0EB641068
:1009D000586088689630800282FB0054C017C0EBD4
:1009E00064109860086BC0F1F000800282FB005434
:1009F000C017C0EB64101863486BC0F1960080020A
:100A000082FB0054C017C0EB64105863886BC0F1C0
:100A10009600800282FB0054C017C0EB64109863FC
:100A200088693C30800282FB0054C017C0EB641020
:100A30009861C8699630800282FB0054C017C0EBF1
:100A40006410D861086A9630800282FB0054C01797
:100A5000C0EB64101862486AC0F1F000800282FBAB
:100A60000054C017C0EB64105862886AC0F1960049
:100A7000800282FB0054C017C0EB64109862C86A01
:100A8000C0F19600800282FB0054C017C0EB6410D6
:100A9000D862C8683C30800282FB0054C017C0EBAB
:100AA0006410D86008699630800282FB0054C01739
:100AB000C0EB6410186148699630800282FB0054D4
:100AC000C017C0EB64105861C86BC0F1F000800221
:100AD00082FB0054C017C0EB6410D863086CC0F1EF
:100AE0009600800282FB0054C017C0EB64101864AB
:100AF000496CC1F19601890282FB0102C917C1EB61
:100B000062125A6401E0FFF763FE0020FFF766FC03
:100B10000648012135F016FE38BD00BF4C130020F9
:100B2000941B00204C190020B5814E1B0010004082
:100B30002DE9F04180464FF40020012105F07EFAB6
:100B40000420012105F06CFA1C494FF440620A6050
:100B500002260E714E7100258D710124CC71184F43
:100B6000384624F0ABFA38460A21082224F0F8FA75
:100B700038460B21082224F0F3FA1249C1F800800C
:100B80008D80CD800D818D810C224A810E4D2846AD
:100B900001F090FD284640F22551224601F004FE66
:100BA0000A483422027044708670C47034F006F92A
:100BB0002846214601F0E6FDBDE8F081DC1B00205F
:100BC00000080240E41B0020004C00406C1C002088
:100BD00008B5454840F2255101F00CFE002800F010
:100BE0008180414B9A88D2B2404B1B68013B0A2B53
:100BF00069D8DFE803F0060F18212A333C454E5729
:100C00006000394B998889B2394B19600221374B02
:100C1000196058E0344B998889B2364B196003212A
:100C2000324B19604FE0304B998889B2324B1960D2
:100C300004212E4B196046E02B4B998889B22E4B2C
:100C400059600521294B19603DE0274B998889B2ED
:100C5000294B99600621254B196034E0224B998875
:100C600089B2254BD9600721204B19602BE01E4B20
:100C7000998889B2204B196108211C4B196022E028
:100C8000194B998889B21C4B59610921174B19607E
:100C900019E0154B998889B2174B99610A21134BBA
:100CA000196010E0104B998889B2134BD9610B2160
:100CB0000E4B196007E00C4B998889B20F4B1960F5
:100CC0004A210A4B19600E4B1B689A4208D10D4B02
:100CD00019780D4B1B68994202D10121034B196011
:100CE000084B1A7008BD00BF004C00408013002064
:100CF000301200202812002000120020541300207F
:100D000048070020801400204C070020F8B5074653
:100D10001020012105F0A0F90120014605F080F91D
:100D20001C494FF4C0620A6002220A714A71002411
:100D30008C710125CD71184E304624F0BFF9304634
:100D40000921072224F00CFA30460A21072224F058
:100D500007FA12490F608C80CC800C818C810C22A8
:100D60004A81A6F57046304601F0A4FC304640F2B8
:100D700025512A4601F018FD0948252202704470C9
:100D80008570C57034F01AF83046294601F0FAFC37
:100D9000F8BD00BFDC1B002000000240E41B002067
:100DA0006C1C002008B5524840F2255101F022FD8C
:100DB000002800F09C804E4B9A88D2B24D4B1B68A5
:100DC000013B0A2B70D8DFE803F0060F1821313AF7
:100DD000434C555E6700464B998889B2464B196073
:100DE0000221444B19605FE0414B998889B2424B24
:100DF000596003213F4B196056E03D4B998889B2F9
:100E00003D4B996004213B4B19604DE03A4B19680A
:100E10003A4B1B689942364B998889B2364BD96058
:100E20000CBF05214321334B19603DE0304B9988BD
:100E300089B2314B196106212E4B196034E02C4BDD
:100E4000998889B22C4B596107212A4B19602BE0F4
:100E5000274B998889B2284B99610821254B196045
:100E600022E0234B998889B2234BD9610921214B78
:100E7000196019E01E4B998889B21F4B19620A212B
:100E80001C4B196010E01A4B998889B21A4B5962B1
:100E90000B21184B196007E0154B998889B2164B46
:100EA00099624A21134B1960154B1B689A4208D16D
:100EB000144B5978144B1B68994202D101210D4BF8
:100EC0001960104B5A700C4B5B68104A12689342C1
:100ED0000DD1094A11680E4A1268914207D00D4A95
:100EE00011680D4A1268914204BF0C4A136008BD94
:100EF00000100140F0110020B01100203407002044
:100F000048070020801400204C07002054010020D6
:100F10009C07002078110020480100208411002047
:100F200008B5034840F2255101F064FC08BD00BF3C
:100F3000001401400EB403B0704700BFF8B50F466F
:100F40001048802101F052FC0F4C0E4E802501E02C
:100F5000013C05D03046294601F042FC0028F7D07C
:100F60000848B9B201F01CFC074C064E402501E0D0
:100F7000013C05D03046294601F032FC0028F7D06C
:100F8000F8BD00BF00100140E193040010B524F04B
:100F900085F935F039FC944B1B6823B9934B1B68DA
:100FA000002B40F0C780924801210A4635F0BEFB75
:100FB0008D4B1B68002B3AD133F0F2FE012000214B
:100FC00033F0EAFE8B4C20468B498C4B1A688C4BD5
:100FD0001B6838F097FB204633F0D2FE0020012139
:100FE00033F0DAFE20468749804B1A6838F08AFBD6
:100FF000204633F0C5FE0020022133F0CDFE824BA7
:1010000093E8070084E80700204633F0B9FE00208B
:10101000032133F0C1FE20467C497D4B1A6838F02D
:1010200071FB204633F0ACFE642024F08FF96F4B47
:101030001B68012B3ED133F0B3FE0120002133F0B9
:10104000ABFE6C4C20466C496C4B1A686C4B1B68B1
:1010500038F058FB204633F093FE0020012133F096
:101060009BFE6C4A234607CA03C323F8022B120CCB
:101070001A70204633F084FE0020022133F08CFEEB
:1010800020466549584B1A6838F03CFB204633F03F
:1010900077FE0020032133F07FFE20465B495C4B46
:1010A0001A6838F02FFB204633F06AFE642024F0E3
:1010B0004DF989E0012004F04DFA33F071FE012072
:1010C000002133F069FE4B4C20464B494B4B1A68CC
:1010D0004B4B1B6838F016FB204633F051FE0020C6
:1010E000012133F059FE20464649404B1A6838F03A
:1010F00009FB204633F044FE0020022133F04CFE71
:1011000020464549384B1A6838F0FCFA204633F03F
:1011100037FE0020032133F03FFE20463B493C4B85
:101120001A6838F0EFFA204633F02AFE642024F0E3
:101130000DF949E033F034FE0120002133F02CFE9C
:101140002C4C20462C492D4B1A682D4B1B6838F02F
:10115000D9FA204633F014FE0020012133F01CFEA2
:1011600020462849214B1A6838F0CCFA204633F043
:1011700007FE0020022133F00FFE204626491A4BBD
:101180001A6838F0BFFA204633F0FAFD0020032138
:1011900033F002FE20461D491D4B1A6838F0B2FAA2
:1011A000204633F0EDFD642024F0D0F81B4C20469F
:1011B000022123F0D3FF0E480121002235F0B6FAB8
:1011C0002046022123F0CAFF144C2046022123F0BE
:1011D000C5FF07480121002235F0A8FA2046022168
:1011E00023F0BCFF10BD00BF4C120020F8210020EE
:1011F000000C0040B01500200CD80308301200206D
:101200002812002018D8030828D8030834D8030867
:10121000B41F002040D803084CD803080000024047
:1012200030B587B033F0BCFD0020022133F0B4FDAF
:10123000154D164B2C460FCB07C424F8023B1B0C54
:101240002370284633F09CFD0020022133F0A4FDDA
:101250000F490A684B6888680090C868019008695F
:1012600002904869039088690490C96905912846ED
:10127000084938F047FA284633F082FD642024F00C
:1012800065F807B030BD00BFB015002060D8030876
:101290000012002070D8030870B50220012104F06C
:1012A000BFFE4FF40010012104F0C8FE1949C0220E
:1012B0000A6002220A7101268E714A71CE71164CA3
:1012C000204623F0FBFE20460621042223F048FF9F
:1012D00020460721042223F043FF104D284633F017
:1012E00073FB0F4C0023A3800E4A22604BF6FF7263
:1012F000E28023814FF4806363814FF48043A381B4
:101300002846314633F0FEFB2846214633F08EFB5B
:1013100070BD00BFDC1B00200004024000540040F0
:1013200094190020A086010038B505460B4C2046D4
:10133000012133F003FC2046012133F023FC204639
:10134000002133F01FFC2046002133F01BFC204617
:1013500033F03AFBFFF7A0FF284638BD00540040A9
:101360002DE9F04180460F463048012133F0D8FB8B
:1013700043F201042D4E2E4D06E0013C04D14FF006
:10138000FF30FFF7D1FF4EE03046294633F01CFC1A
:101390000028F2D04FEA4801244801F0FE01002263
:1013A00033F0DAFB43F20104204E224D06E0013C0B
:1013B00004D16FF00100FFF7B7FF34E03046294653
:1013C00033F002FC0028F2D0184B1B8B43F20104CF
:1013D000164E194D06E0013C04D16FF00200FFF7F4
:1013E000A3FF20E03046294633F0EEFB0028F2D080
:1013F0000E48394633F0D4FB43F201040B4E0E4D38
:1014000006E0013C04D16FF00300FFF78DFF0AE016
:101410003046294633F0D8FB0028F2D0034801219A
:1014200033F08CFB002000B2BDE8F0810054004096
:1014300001000010020000108000001008B500013B
:10144000C3B209B143F001030AB143F00403054AF2
:1014500012780AB143F0080327201946FFF780FFEE
:1014600008BD00BFB74A002038B505460C4601222A
:10147000FFF7E4FF012023F053FF28462146002216
:10148000FFF7DCFF38BD00BF38B504460D46000944
:10149000FFF7EAFF04F00F002946FFF7E5FF38BD2C
:1014A00008B50021FFF7F0FF08BD00BF08B5012116
:1014B000FFF7EAFF08BD00BF08B5FFF7F7FF0720F9
:1014C00023F02EFF08BD00BF08B5054B187800F0CB
:1014D000FD00187040F00800FFF7E2FF08BD00BFF4
:1014E000B44A002008B5054B187840F004021A7081
:1014F00040F00C00FFF7D4FF08BD00BFB44A002045
:1015000070B584B005460C46062023F009FF0C4B4D
:101510000FCB04AE06E90F000A4B1B78A3429CBF19
:1015200003F1FF34E4B204AB03EB840454F8100C71
:10153000054465F07F00C0B2FFF7B2FF04B070BD94
:1015400088D80308B84A002008B50120FFF7A8FF93
:101550004FF4966023F0E4FE08BD00BF08B5274BAA
:101560001970012994BF00200820254B187032B152
:10157000012904D1224B1A7842F004021A70FFF7B5
:101580008BFE27221F4B1A7001211F4B1970002060
:101590000246FFF753FF4CF2503023F0C1FE032008
:1015A0000021FFF761FF41F2941023F0B9FE032000
:1015B0000021FFF759FF41F2941023F0B1FE032000
:1015C0000021FFF751FF962023F0AAFE0220002100
:1015D000FFF74AFF0A4B187840F02000FFF760FF42
:1015E00004220A4B1A70FFF77DFFFFF7ADFF0222BE
:1015F000074B1A700620FFF753FF08BDB84A0020BA
:10160000B64A0020B54A0020B74A0020B44A00205C
:10161000B94A00202DE9F843074690466A4801215F
:1016200033F07EFA43F20104674E684D05E0013C59
:1016300003D1012032F0C0FFC2E03046294633F02A
:10164000C3FA0028F3D079005F4801F0FE010022C0
:1016500033F082FA43F201045B4E5D4D05E0013C3C
:1016600003D1022032F0A8FFAAE03046294633F029
:10167000ABFA0028F3D0544B1B8B43F20104524EBB
:10168000544D05E0013C03D1032032F095FF97E073
:101690003046294633F098FA0028F3D04A48002112
:1016A00033F07EFA43F20104474D4A4EDFF8389199
:1016B00005E0013C03D1052032F07EFF80E02846A2
:1016C000314633F081FA0028F3D02846494633F0FA
:1016D0007BFA0028EDD03C48414633F061FA43F2F2
:1016E0000104394D3B4EDFF8008105E0013C03D198
:1016F000052032F061FF63E02846314633F064FA9A
:101700000028F3D02846414633F05EFA0028EDD099
:101710002D4C2046012133F011FA2046012133F0EF
:10172000FFF943F20104284E2B4D05E0013C03D1A3
:10173000052032F041FF43E03046294633F036FAC7
:101740000028F3D0790041F001011F48C9B20122FD
:1017500033F002FA43F201041B4E204D05E0013C38
:1017600003D1012032F028FF2AE03046294633F029
:101770001DFA0028F3D0144C2046002133F0F4F970
:101780002046012133F0DAF943F201040E4E144DE4
:1017900005E0013C03D1012032F00EFF10E030469D
:1017A000294633F003FA0028F3D0074C204633F0E3
:1017B000F9F90C4B18602046012133F0D5F90020CF
:1017C00000B2BDE8F88300BF0058004001000010DF
:1017D000020000108000001001000300020003005E
:1017E000400003004C1E0020040000102DE9F843C7
:1017F00081460F4690465248012133F091F943F259
:1018000001044F4E4F4D06E0013C04D14FF0FF3034
:1018100032F0D2FE91E03046294633F0D5F9002867
:10182000F2D04FEA4901464801F0FE01002233F0B0
:1018300093F943F20104424E434D06E0013C04D1CA
:101840006FF0010032F0B8FE77E03046294633F001
:10185000BBF90028F2D03A4B1B8B43F20104384EFF
:101860003A4D06E0013C04D16FF0020032F0A4FED4
:1018700063E03046294633F0A7F90028F2D030481B
:10188000002133F08DF943F201042D4D2F4EDFF886
:10189000C09006E0013C04D16FF0040032F08CFEF1
:1018A0004BE02846314633F08FF90028F2D0284625
:1018B000494633F089F90028ECD02148414633F0FD
:1018C0006FF943F201041E4D204EDFF8848006E0DC
:1018D000013C04D16FF0040032F06EFE2DE028468A
:1018E000314633F071F90028F2D02846414633F0F2
:1018F0006BF90028ECD01248394633F051F943F225
:1019000001040F4D114E124F06E0013C04D16FF05F
:10191000040032F051FE10E02846314633F054F90D
:101920000028F2D02846394633F04EF90028ECD092
:101930000348012133F002F9002000B2BDE8F8832A
:10194000005800400100001002000010800000104C
:10195000040000102DE9F047B14D2024284621460F
:1019600023F0F4FB0128F9D04FF4FA7023F0EEFCD9
:10197000AC4CAB4D33F0A4FB33F012FA002001461F
:1019800033F00AFAA84A234607CA03C323F8022BF6
:10199000120C1A70204633F0F3F90020012133F0C5
:1019A000FBF92046A149A24B1A6837F0ABFE20464E
:1019B00033F0E6F9C82023F0C9FC2846202123F0A3
:1019C000C5FB0128D6D19A4C502061780122FFF73F
:1019D0000DFF642023F0BAFC502021780222FFF78B
:1019E00005FF642023F0B2FC8D4D202428462146BB
:1019F00023F0ACFB0128F9D08A4EDFF844A2DFF8CF
:101A00002C92DFF82C82864F33F05AFB33F0C8F962
:101A10000020014633F0C0F9344655460FCD0FC4BF
:101A20002B682370304633F0ABF90020012133F0EE
:101A3000B3F930464946D8F8002037F063FE304607
:101A400033F09EF9C82023F081FC3846202123F092
:101A50007DFB0128D8D1764C502061780322FFF716
:101A6000C5FE642023F072FC502021780422FFF789
:101A7000BDFE642023F06AFC694D202428462146DF
:101A800023F064FB0128F9D0664C6A4D644E33F0B4
:101A900017FB33F085F90020014633F07DF995E816
:101AA0000F0084E80F00204633F06AF9002001217E
:101AB00033F072F920465D495D4B1A6837F022FE1B
:101AC000204633F05DF9C82023F040FC3046202149
:101AD00023F03CFB0128DAD1554C502061780522D7
:101AE000FFF784FE642023F031FC50202178062289
:101AF000FFF77CFE642023F029FC494D2024284672
:101B0000214623F023FB0128F9D0464C444D33F005
:101B1000D7FA33F045F90020014633F03DF9464A43
:101B2000234607CA03C31A80204633F029F9002050
:101B3000012133F031F920463C493D4B1A6837F01A
:101B4000E1FD204633F01CF9C82023F0FFFB2846B6
:101B5000202123F0FBFA0128D9D1354C502061789F
:101B60000722FFF743FE642023F0F0FB502021788A
:101B70000822FFF73BFE642023F0E8FB284D2024D9
:101B80002846214623F0E2FA0128F9D0254C244DBD
:101B900033F096FA33F004F90020014633F0FCF8F4
:101BA000264A234607CA03C31A70204633F0E8F8D2
:101BB0000020012133F0F0F820461C491C4B1A6824
:101BC00037F0A0FD204633F0DBF8C82023F0BEFB41
:101BD0002846202123F0BAFA0128D9D1144C5020EC
:101BE00061780922FFF702FE642023F0AFFB50204A
:101BF00021780A22FFF7FAFD642023F0A7FB084DA5
:101C000020242846214623F0A1FA0128F9D0054EC8
:101C1000DFF830A0DFF81490DFF81480004F13E0F5
:101C200000100240B015002098D80308A4D803087B
:101C3000441F002018D90308C4D80308D0D80308CB
:101C4000B0D80308DCD8030833F03AFA33F0A8F828
:101C50000020014633F0A0F8344655460FCD0FC49E
:101C60002B682370304633F08BF80020012133F0CD
:101C700093F830464946D8F8002037F043FD304607
:101C800033F07EF8C82023F061FB3846202123F092
:101C90005DFA0128D8D19A4C502061780B22FFF7C9
:101CA000A5FD642023F052FB502021780C22FFF781
:101CB0009DFD642023F04AFB924D202428462146B6
:101CC00023F044FA0128F9D08F4C904D8D4E33F01B
:101CD000F7F933F065F80020014633F05DF895E838
:101CE0000F0084E80F00204633F04AF8002001215D
:101CF00033F052F820468649814B1A6837F002FDCE
:101D0000204633F03DF8C82023F020FB3046202148
:101D100023F01CFA0128DAD1794C502061780D2289
:101D2000FFF764FD642023F011FB502021780E2280
:101D3000FFF75CFD642023F009FB724D2024284648
:101D4000214623F003FA0128F9D06F4C6D4D33F092
:101D5000B7F933F025F80020014633F01DF86D4A3D
:101D6000234607CA03C323F8022B120C1A7020461D
:101D700033F006F80020012133F00EF820466449C4
:101D80005F4B1A6837F0BEFC204632F0F9FFC820DE
:101D900023F0DCFA2846202123F0D8F90128D6D1F7
:101DA000574C502061780F22FFF720FD642023F06C
:101DB000CDFA502021781022FFF718FD642023F07F
:101DC000C5FA504D20242846214623F0BFF90128AA
:101DD000F9D04D4C4B4D33F073F932F0E1FF002058
:101DE000014632F0D9FF4C4A234607CA03C31A8082
:101DF000204632F0C5FF0020012132F0CDFF204601
:101E000043493F4B1A6837F07DFC204632F0B8FF5B
:101E1000C82023F09BFA2846202123F097F90128B7
:101E2000D9D1374C502061781122FFF7DFFC6420B4
:101E300023F08CFA502021781222FFF7D7FC64207F
:101E400023F084FA2F4D20242846214623F07EF9E2
:101E50000128F9D02C4C314D2A4E33F031F932F0B3
:101E60009FFF0020014632F097FF95E803002060B5
:101E70002171204632F084FF0020012132F08CFFD6
:101E8000204623491E4B1A6837F03CFC204632F0AE
:101E900077FFC82023F05AFA3046202123F056F964
:101EA0000128DAD1164C502061781322FFF79EFCEE
:101EB000642023F04BFA502021781422FFF796FC7F
:101EC000642023F043FA0F4D20242846214623F0B6
:101ED0003DF90128F9D032F063FF0020014632F0CD
:101EE0005BFF094D0E4B2C460FCB07C423702846D1
:101EF00032F046FF4FF4FA7023F028FABDE8F0877D
:101F0000441F002000100240B015002028D903080B
:101F1000A4D80308F0D80308FCD80308B0F00308DD
:101F200008D9030870B5204C204E214D32F038FFFF
:101F30000020014632F030FF204631461D4B5A68E2
:101F400037F0E0FB204632F01BFF2846202123F02B
:101F5000FDF8012823D1164D20242846214623F0E0
:101F6000F5F80128F9D05020124B19791522FFF706
:101F70003DFC642023F0EAF932F012FF0020014614
:101F800032F00AFF084B0C4A92E80300186099806F
:101F9000184632F0F5FEC82023F0D8F970BD642051
:101FA00023F0D4F9C2E700BFB015002038D90308E8
:101FB000001002401423002044D9030870B55020BB
:101FC00001210A46FFF726FB05465E4C26683602CD
:101FD000502001210222FFF71DFB236833435A4A98
:101FE0001360642023F0B2F9502001210322FFF78F
:101FF00011FB26683602502001210422FFF70AFB5C
:1020000023683343514A1360642023F09FF9502022
:1020100001210522FFF7FEFA266836025020012131
:102020000622FFF7F7FA23683343494A1360642016
:1020300023F08CF9502001210B22FFF7EBFA2668E0
:102040003602502001210C22FFF7E4FA23683343C3
:10205000404A1360642023F079F9502001210D22B9
:10206000FFF7D8FA26683602502001210E22FFF72A
:10207000D1FA23683343384A1360642023F066F9A9
:10208000502001210F22FFF7C5FA266836025020A2
:1020900001211022FFF7BEFA236833432F4A136051
:1020A000642023F053F9502001210722FFF7B2FAF0
:1020B00026683602502001210822FFF7ABFA236878
:1020C0003343274A1360642023F040F95020012154
:1020D0000922FFF79FFA26683602502001210A22C2
:1020E000FFF798FA236833431E4A1360642023F0F5
:1020F0002DF9502001211122FFF78CFA26683602B3
:10210000502001211222FFF785FA23683343164A33
:102110001360642023F01AF9502001211322FFF7E5
:1021200079FA26683602502001211422FFF772FA4C
:1021300023681E430D4B1E60642023F007F92846D8
:1021400070BD00BF4C1E0020B04A002008230020B4
:1021500068230020D4200020481F0020401E0020BB
:10216000D4210020E4200020501E00206023002005
:1021700008B5502001211522FFF74CFA034B1A68CD
:10218000034B1A60642023F0E1F808BD4C1E0020C8
:1021900060000020F8B532F003FE0020014632F066
:1021A000FBFD5D4C20465D495D4B1A6837F0AAFA8D
:1021B000204632F0E5FD0020012132F0EDFD204601
:1021C0005849594B1A6837F09DFA204632F0D8FD2D
:1021D0000020022132F0E0FD20465449544B1A6899
:1021E00037F090FA204632F0CBFD0020032132F088
:1021F000D3FD20464F49504B1A6837F083FA2046EA
:1022000032F0BEFDC82023F0A1F84C48202122F076
:102210009DFF01287ED172E032F0C2FD0020014610
:1022200032F0BAFD20463946326837F06BFA204664
:1022300032F0A6FD0020012132F0AEFD20464049DB
:10224000404B1A6837F05EFA204632F099FD0020C4
:10225000022132F0A1FD20463B493C4B1A6837F081
:1022600051FA204632F08CFD0020032132F094FD1B
:1022700020463749374B1A6837F044FA204632F087
:102280007FFDC82023F062F82846202122F05EFF5F
:102290000128C1D12CE0204C2F4F304E274D32F079
:1022A0007FFD0020014632F077FD20463946326836
:1022B00037F028FA204632F063FD0020012132F089
:1022C0006BFD20462649274B1A6837F01BFA20463B
:1022D00032F056FD642023F039F82846202122F000
:1022E00035FF0128DBD12846202122F02FFFD6E739
:1022F0002846202122F02AFF01288DD1CBE70F4864
:10230000202122F023FF012804D1034C164F174E41
:102310000A4D81E7F8BD00BFB01500204CD9030875
:10232000B04A002058D90308401E002068D903088D
:10233000E420002074D90308D421002000100240BA
:102340008CD90308D420002098D903080823002042
:10235000A4D90308481F0020B0D903086023002037
:10236000BCD903086000002080D90308682300203E
:1023700010B5624C502061780122FFF737FA6420D3
:1023800022F0E4FF502021780222FFF72FFA642088
:1023900022F0DCFF5A4C502061780322FFF726FA26
:1023A000642022F0D3FF502021780422FFF71EFA88
:1023B000642022F0CBFF534C502061780522FFF7B8
:1023C00015FA642022F0C2FF502021780622FFF780
:1023D0000DFA642022F0BAFF4B4C5020617807229E
:1023E000FFF704FA642022F0B1FF50202178082280
:1023F000FFF7FCF9642022F0A9FF444C50206178DB
:102400000922FFF7F3F9642022F0A0FF5020217881
:102410000A22FFF7EBF9642022F098FF3C4C502091
:1024200061780B22FFF7E2F9642022F08FFF502041
:1024300021780C22FFF7DAF9642022F087FF354C6F
:10244000502061780D22FFF7D1F9642022F07EFF41
:10245000502021780E22FFF7C9F9642022F076FF80
:102460002D4C502061780F22FFF7C0F9642022F034
:102470006DFF502021781022FFF7B8F9642022F078
:1024800065FF264C502061781122FFF7AFF96420D8
:1024900022F05CFF502021781222FFF7A7F9642078
:1024A00022F054FF1E4C502061781322FFF79EF952
:1024B000642022F04BFF502021781422FFF796F978
:1024C000642022F043FF5020164B19781522FFF7A5
:1024D0008DF932F065FC0020014632F05DFC124CB3
:1024E000124A234607CA03C31A80204632F048FC2A
:1024F0004FF4FA7022F02AFF10BD00BFB04A00204E
:102500000823002068230020D4210020E42000209C
:10251000D4200020481F0020401E0020501E002014
:102520006023002060000020B0150020CCD90308F3
:1025300010B51248124B1968FEF700FD114C5020DF
:10254000217D1622FFF752F95020217E1722FFF736
:102550004DF94FF4FA7022F0F9FE32F021FC002020
:10256000014632F019FC084C084A234607CA03C347
:102570001A80204632F004FC10BD00BF005000401D
:10258000B0010020B0110020B0150020CCD9030804
:1025900038B5502001211622FFF73CF8114C204697
:1025A000114B1968FEF7CAFC104D20462978FEF73A
:1025B000C5FC502001211722FFF72CF8204629786E
:1025C000FEF7BCFC32F0ECFB0020014632F0E4FBED
:1025D000074C084A234607CA03C31A80204632F034
:1025E000CFFB38BD00500040A40100204C1E00204D
:1025F000B0150020D8D9030808B5284B984208D157
:102600001020012103F044FD1020002103F040FDC3
:1026100008BD234B98420AD14FF40030012103F04A
:1026200029FD4FF40030002103F024FD08BD1D4BAF
:1026300098420AD14FF48020012103F01BFD4FF492
:102640008020002103F016FD08BD174B98420AD1E7
:102650004FF40020012103F00DFD4FF40020002174
:1026600003F008FD08BD114B98420AD14FF48010C9
:10267000012103F0FFFC4FF48010002103F0FAFC6D
:1026800008BD0B4B984207D12020012103F000FD2B
:102690002020002103F0FCFC08BD00BF0010014019
:1026A0000044004000480040004C00400050004002
:1026B0000014014030B585B004460D46038A9BB234
:1026C00023F44053CA8813430382828992B222F4CE
:1026D000B05222F00C020989AB880B4369890B4385
:1026E0009BB213438381838A9BB223F44073AA89EC
:1026F00013438382684603F037FC204B9C4203D08F
:1027000003F580639C4201D1039A00E0029AA389F9
:102710001BB2002B08DA02EB820202EB82022B686A
:102720005B00B2FBF3F207E002EB820202EB8202F3
:1027300029688900B2FBF1F2114BA3FB02135B097C
:102740001801642103FB1123A18909B2002908DAC9
:10275000DB0032330A4DA5FB0323C3F342130343CB
:1027600007E01B013233064DA5FB0313C3F34313EC
:1027700003439BB2238105B030BD00BF0010014070
:102780001F85EB5129B183899BB243F400538381A8
:102790007047838923F400531B041B0C838170470B
:1027A000C1F308018180704710B4C1F3421301F0F6
:1027B0001F01012404FA01F1A34201D10C3003E00E
:1027C000022B0CBF103014301AB10368194301609A
:1027D00003E0036823EA010101605DF8044B7047E0
:1027E000038819420CBF002001207047C94389B2F9
:1027F0000180704710B4C1F3421301F01F0201249D
:102800009440012B03D1828992B2224005E0022B31
:102810000CBF028A828A92B2224003889BB242B1E4
:10282000090A012202FA01F119420CBF002001201D
:1028300000E000205DF8044B704700BF000000007E
:102840002DE9F04F85B005460C46104636F074FE73
:10285000574B1860204636F055FC564B18604FF029
:10286000000A0FF24419D9E900890746AB465846D9
:1028700036F048FC0146504B5AF8030036F08CFB0A
:1028800036F05AFE06464D4B4AF80300384636F0FD
:1028900019F804460D46304636F002F842464B46DB
:1028A00036F08EF9CDE9000134F066F9CDE9020188
:1028B000DDE9000134F0E2F9CDE9000120462946C6
:1028C000DDE9002336F052F836F012FB06462046CA
:1028D0002946DDE9022336F049F836F009FB0146C6
:1028E000374B5AF8030036F057FB0146304636F0B6
:1028F00011FD35F0E7FF33F097FF36F0F9FA35F0C8
:10290000E1FF42464B4636F031F836F0F1FA2D4BF6
:1029100043F80A0035F0D6FF42464B4636F050F9F0
:1029200034F0ACF936F0E4FA0446DDE9000136F0A3
:10293000DFFA0146384636F039FC214636F0EAFC2B
:10294000214B4AF803000AF1040ABAF1180F8ED19C
:102950001E4B1C601E4B186006221E4B1A601A4C40
:1029600020684FF0804136F019FB2060E0684FF09E
:10297000804136F013FBE0606068174936F00CFBCD
:1029800060602069144936F007FB2061A068134994
:1029900036F002FBA0606069104936F0FDFA606114
:1029A00005B0BDE8F08F00BF85EB51B81EA54C40C7
:1029B0003C1E0020B01F0020D0D60308702300204A
:1029C000E8D60308642200201C2100209C2300205C
:1029D00008220020BC130020000040400000E0401E
:1029E00038B5044608460D4B53F8241036F0D6FA95
:1029F0000B4B53F8241036F0D9FB0546094B53F81E
:102A0000240036F07FFB0146284636F0C7FA36F040
:102A100093FD054B43F8240038BD00BFC8020020D9
:102A200060D7030818D70308100300200000000037
:102A30002DE9F04F83B001901E46DFF80082C8F800
:102A400000101046744936F0A7FA0146DFF8F0A1ED
:102A5000CAF80000714D724B1D60724C724B1C60C5
:102A600036F0A4FB07463046314636F09FFB014660
:102A7000384636F093FA294636F08EFA214636F07B
:102A800049FC35F01FFF34F043F936F031FA35F0E8
:102A900019FF04460D4634F06FF80022634B35F001
:102AA00065FF0022624B35F0AFFD36F021FA81461A
:102AB000604B18602046294634F0E0F800225B4B5A
:102AC00035F054FF36F014FA07465B4B1860DAF81D
:102AD00000A03046494636F069FB834638465146E9
:102AE00036F064FB0146584636F056FA83464846AF
:102AF000514636F05BFB81463046394636F056FB90
:102B00000146484636F04AFA0146584636F002FC7D
:102B100035F0D8FE33F088FE06460F46204629469B
:102B20003BA3D3E9002335F021FF36F0E1F9C8F8E3
:102B300008003046394636F0DBF935F0C3FE34A3E1
:102B4000D3E9002335F012FF36F0D2F9C8F80400BB
:102B5000019A531E052B57D8DFE803F003111F2DF0
:102B60003B49364C00202168FFF73AFF012061689D
:102B7000FFF736FF0220A168FFF732FF44E02F4C39
:102B800009202168FFF72CFF0A206168FFF728FF62
:102B90000B20A168FFF724FF36E0284C03202168B2
:102BA000FFF71EFF04206168FFF71AFF0520A168E8
:102BB000FFF716FF28E0214C0C202168FFF710FFDB
:102BC0000D206168FFF70CFF0E20A168FFF708FFDA
:102BD0001AE01A4C06202168FFF702FF07206168FF
:102BE000FFF7FEFE0820A168FFF7FAFE0CE0134C89
:102BF0000F202168FFF7F4FE10206168FFF7F0FE58
:102C00001120A168FFF7ECFE03B0BDE8F08F00BF14
:102C100085EB51B81EA54C40000060400000B24258
:102C2000F42000200000A042C01E00200000204030
:102C300000001440D8220020B41E00203C1D0020BB
:102C40002C200020AFF3008070B500200146214AFF
:102C5000FFF7F6FD322022F079FB1F4D1F4C204E6E
:102C6000306836F04FFA0346012029462246FFF726
:102C7000DFFE306836F046FA034602202946224637
:102C8000FFF7D6FE306836F03DFA034603202946AA
:102C90002246FFF7CDFE306836F034FA03460420B2
:102CA00029462246FFF7C4FE306836F02BFA034669
:102CB000052029462246FFF7BBFE306836F022FA8F
:102CC0000346062029462246FFF7B2FE642022F082
:102CD0003DFB70BD000010410000B4420000E04028
:102CE0003C1E00202DE9F04F83B004468946AD48D4
:102CF000AD49FEF71FF9AD4B83FB0423E417C4EB8A
:102D00006304019400200521A94AFFF799FD3220B0
:102D100022F01CFB019C002C40F3FD824FF0010AC5
:102D2000A44CA54DA54EA648A64B1968FEF706F97A
:102D3000A54B9B68A54A1268934204BFA44A13603E
:102D40009F48A04B1968FEF7F9F89F4B9B689F4A74
:102D50001268934204BF9E4A13609E4F386836F053
:102D6000D1F90346012021462A46FFF761FEDFF82C
:102D70006882D8F80C00214636F010F9834638688E
:102D8000033836F0BFF90346022059463246FFF7B2
:102D90004FFED8F80400214636F000F98346386823
:102DA000033836F0AFF90346032059463246FFF7A1
:102DB0003FFE386836F0A6F90346042021462A462D
:102DC000FFF736FE386836F09DF9034605202146A8
:102DD0002A46FFF72DFED8F81400214636F0DEF81B
:102DE00080463868033836F08DF9034606204146A0
:102DF0003246FFF71DFE484622F0A8FA7048714B94
:102E00001968FEF79BF8704B9B68704A12689342F2
:102E100004BF6F4A13606A486A4B1968FEF78EF860
:102E2000694B9B68694A1268934204BF684A136001
:102E3000DFF8A481D8F80000214636F0AFF88346C9
:102E4000644F386836F05EF90346012059462A4639
:102E5000FFF7EEFD2046D8F80C1036F09DF88346BB
:102E60003868033836F04EF9034602205946324698
:102E7000FFF7DEFD2046D8F8041036F08DF88346C3
:102E80003868033836F03EF9034603205946324687
:102E9000FFF7CEFDD8F81000214636F07FF88346C4
:102EA000386836F02FF90346042059462A46FFF7C2
:102EB000BFFDD8F80800214636F070F88346386820
:102EC00036F020F90346052059462A46FFF7B0FDA3
:102ED0002046D8F8141036F05FF88046386803387A
:102EE00036F010F90346062041463246FFF7A0FDB2
:102EF000484622F02BFA3248324B1968FEF71EF88A
:102F0000314B9B68314A1268934204BF304A1360C8
:102F10002B482C4B1968FEF711F82B4B9B682B4A5A
:102F20001268934204BF2A4A1360DFF8AC80D8F8D5
:102F30000000214636F032F88346264F386836F0D6
:102F4000E1F80346012059462A46FFF771FD204665
:102F5000D8F80C1036F020F88346386836F0D2F8EE
:102F60000346022059462A46FFF762FD2046D8F85C
:102F7000041036F011F88346386836F0C3F803467B
:102F8000032059462A46FFF753FDD8F81000214682
:102F900036F004F88346386836F0B4F80346042067
:102FA0001CE000BF00100140E4D9030867666666B4
:102FB000000010410000B4420000E0400000204149
:102FC00000500040BC010020B0110020540100203E
:102FD000841100203C1E00206422002059462A460D
:102FE000FFF726FDD8F80800214635F0D7FF8346C5
:102FF000386836F087F80346052059462A46FFF719
:1030000017FD2046D8F8141035F0C6FF8046386802
:1030100036F078F80346062041462A46FFF708FDB9
:10302000484622F093F9AC48AC4B1968FDF786FF8F
:10303000AB4B9B68AB4A1268934204BFAA4A136029
:10304000A548A64B1968FDF779FFA54B9B68A54AD3
:103050001268934204BFA44A1360DFF89482D8F840
:103060000000214635F09AFF8346A04F38680338A8
:1030700036F048F80346012059463246FFF7D8FC9F
:10308000386836F03FF80346022021462A46FFF70B
:10309000CFFC386836F036F80346032021462A462E
:1030A000FFF7C6FCD8F81000214635F077FF8346BD
:1030B0003868033836F026F803460420594632466D
:1030C000FFF7B6FCD8F80800214635F067FF8046C8
:1030D0003868033836F016F8034605204146324674
:1030E000FFF7A6FC386836F00DF8034606202146A7
:1030F0002A46FFF79DFC484622F028F97648774B90
:103100001968FDF71BFF764B9B68764A126893425D
:1031100004BF754A13607048704B1968FDF70EFFC5
:103120006F4B9B686F4A1268934204BF6E4A1360EC
:10313000DFF8BC812046D8F8001035F02DFF83461B
:103140006A4F3868033835F0DDFF034601205946E1
:103150003246FFF76DFCD8F80C00214635F01EFF13
:103160008346386835F0CEFF0346022059462A468A
:10317000FFF75EFCD8F80400214635F00FFF8346C8
:10318000386835F0BFFF0346032059462A46FFF74B
:103190004FFC2046D8F8101035F0FEFE8346386804
:1031A000033835F0AFFF0346042059463246FFF797
:1031B0003FFC2046D8F8081035F0EEFE834638680C
:1031C000033835F09FFF0346052059463246FFF786
:1031D0002FFCD8F81400214635F0E0FE8046386810
:1031E00035F090FF0346062041462A46FFF720FCB3
:1031F000484622F0ABF83848384B1968FDF79EFE78
:10320000374B9B68374A1268934204BF364A1360B3
:103210003148324B1968FDF791FE314B9B68314ABA
:103220001268934204BF304A1360DFF8C48020461E
:10323000D8F8001035F0B0FE83462C4F386835F0D2
:1032400061FF0346012059462A46FFF7F1FBD8F8F3
:103250000C00214635F0A2FE8346386835F052FF57
:103260000346022059462A46FFF7E2FBD8F804003D
:10327000214635F093FE8346386835F043FF034618
:10328000032059462A46FFF7D3FB2046D8F81010F2
:1032900035F082FE8346386835F034FF034604205B
:1032A00059462A46FFF7C4FB2046D8F8081035F0E7
:1032B00073FE8346386835F025FF034605205946DE
:1032C0002A46FFF7B5FBD8F81400214635F066FE14
:1032D000804638680EE000BF00500040BC0100206E
:1032E000B011002054010020841100203C1E002059
:1032F0006422002035F006FF0346062041462A4698
:10330000FFF796FB484622F021F80AF1010A019BDB
:103310005345BFF608AD03B0BDE8F08F2DE9F04F7F
:1033200083B004468946AE48AE49FDF703FEAE4B76
:1033300083FB0423A3EBE473019300200321AB4A36
:10334000FFF77EFA322022F001F8019B002B40F3B8
:1033500019824FF0010AA64DA64FDFF8A482A64CB1
:10336000206835F0CFFE0346012029463A46FFF794
:103370005FFBA24EF068294635F010FE83462068B8
:10338000033835F0BFFE0346022059464246FFF798
:103390004FFB7068294635F001FE834620680338EC
:1033A00035F0B0FE0346032059464246FFF740FB86
:1033B000206835F0A7FE0346042029463A46FFF769
:1033C00037FB206835F09EFE0346052029463A4625
:1033D000FFF72EFB7069294635F0E0FD8346206833
:1033E000033835F08FFE0346062059464246FFF764
:1033F0001FFB484621F0AAFF3068294635F0CEFD74
:103400008346206835F07EFE0346012059463A4641
:10341000FFF70EFB2846F16835F0BEFD83462068B5
:10342000033835F06FFE0346022059464246FFF747
:10343000FFFA2846716835F0AFFD834620680338EF
:1034400035F060FE0346032059464246FFF7F0FA86
:103450003069294635F0A2FD8346206835F052FEDA
:103460000346042059463A46FFF7E2FAB068294677
:1034700035F094FD8346206835F044FE0346052070
:1034800059463A46FFF7D4FA2846716935F084FD6B
:1034900083462068033835F035FE0346062059463A
:1034A0004246FFF7C5FA484621F050FF30682946EA
:1034B00035F074FD8346206835F024FE0346012074
:1034C00059463A46FFF7B4FA2846F16835F064FDEC
:1034D0008346206835F016FE0346022059463A46D8
:1034E000FFF7A6FA2846716835F056FD8346206836
:1034F00035F008FE0346032059463A46FFF798FA8E
:103500003069294635F04AFD8346206835F0FAFDDA
:103510000346042059463A46FFF78AFAB06829461E
:1035200035F03CFD8346206835F0ECFD0346052070
:1035300059463A46FFF77CFA2846716935F02CFD6A
:103540008346206835F0DEFD0346062059463A469C
:10355000FFF76EFA484621F0F9FE3068294635F04B
:103560001DFD83462068033835F0CCFD034601205D
:1035700059464246FFF75CFA206835F0C3FD034622
:10358000022029463A46FFF753FA206835F0BAFD83
:103590000346032029463A46FFF74AFA306929468E
:1035A00035F0FCFC83462068033835F0ABFD03465C
:1035B000042059464246FFF73BFAB068294635F0E9
:1035C000EDFC83462068033835F09CFD034605205A
:1035D00059464246FFF72CFA206835F093FD11E07A
:1035E0000010014000DA03085655555500001041FF
:1035F0000000B4420000E0403C1E00206422002095
:10360000000020410346062029463A46FFF710FAFB
:10361000484621F09BFE2846316835F0BDFC8346C4
:103620002068033835F06EFD0346012059464246B6
:10363000FFF7FEF9F068294635F0B0FC83462068B4
:1036400035F060FD0346022059463A46FFF7F0F98F
:103650007068294635F0A2FC8346206835F052FD9B
:103660000346032059463A46FFF7E2F928463169F6
:1036700035F092FC83462068033835F043FD03465D
:10368000042059464246FFF7D3F92846B16835F081
:1036900083FC83462068033835F034FD034605205B
:1036A00059464246FFF7C4F97069294635F076FC61
:1036B0008346206835F026FD0346062059463A46E3
:1036C000FFF7B6F9484621F041FE2846316835F04B
:1036D00063FC8346206835F015FD034601205946FA
:1036E0003A46FFF7A5F9F068294635F057FC8346BE
:1036F000206835F007FD0346022059463A46FFF799
:1037000097F97068294635F049FC8346206835F002
:10371000F9FC0346032059463A46FFF789F9284643
:10372000316935F039FC8346206835F0EBFC0346FF
:10373000042059463A46FFF77BF92846B16835F030
:103740002BFC8346206835F0DDFC034605205946F6
:103750003A46FFF76DF97069294635F01FFC0646B9
:10376000206835F0CFFC0346062031463A46FFF785
:103770005FF9484621F0EAFD0AF1010A019A524533
:10378000BFF6EDAD03B0BDE8F08F00BF2DE9F04FFF
:1037900083B004468A46AF48AF49FDF7CBFBAF4B39
:1037A00083FB0423E417C4EB6304019400206FF04F
:1037B0000401AB4AFFF744F8322021F0C7FD019C19
:1037C000002C40F33A8201230093A64DA64FA74C4C
:1037D000DFF8A082DFF8A092206835F093FC034662
:1037E000012029463A46FFF723F9A14EF068294601
:1037F00035F0D4FB83462068033835F083FC03465C
:10380000022059464246FFF713F93069294635F040
:10381000C5FB494635F0C2FB83462068033835F0C6
:1038200071FC0346032059464246FFF701F9206820
:1038300035F068FC0346042029463A46FFF7F8F8BD
:10384000206835F05FFC0346052029463A46FFF71D
:10385000EFF87069294635F0A1FB834620680338EC
:1038600035F050FC0346062059464246FFF7E0F883
:10387000504621F06BFD3068294635F08FFB4946F4
:1038800035F08CFB8346206835F03CFC0346012074
:1038900059463A46FFF7CCF82846F16835F07CFBEC
:1038A00083462068033835F02DFC03460220594634
:1038B0004246FFF7BDF82846716835F06DFB834638
:1038C0002068033835F01EFC034603205946424663
:1038D000FFF7AEF83069294635F060FB8346206873
:1038E00035F010FC0346042059463A46FFF7A0F88D
:1038F000B068294635F052FB494635F04FFB834608
:10390000206835F0FFFB0346052059463A46FFF78D
:103910008FF82846716935F03FFB834620680338ED
:1039200035F0F0FB0346062059464246FFF780F883
:10393000504621F00BFD3068294635F02FFB4146FB
:1039400035F02CFB8346206835F0DCFB0346012074
:1039500059463A46FFF76CF82846F16835F01CFBEB
:103960008346206835F0CEFB0346022059463A468E
:10397000FFF75EF82846716835F00EFB8346206835
:1039800035F0C0FB0346032059463A46FFF750F88E
:103990003069294635F002FB8346206835F0B2FBDA
:1039A0000346042059463A46FFF742F8B0682946D4
:1039B00035F0F4FA494635F0F1FA8346206835F0DF
:1039C000A1FB0346052059463A46FFF731F8284641
:1039D000716935F0E1FA8346206835F093FB0346C0
:1039E000062059463A46FFF723F8504621F0AEFC30
:1039F0003068294635F0D2FA494635F0CFFA834689
:103A00002068033835F07EFB0346012059464246C4
:103A1000FFF70EF8206835F075FB034602202946B3
:103A20003A46FFF705F8206835F06CFB03460320A3
:103A300029463A46FEF7FCFF3069294635F0AEFAD2
:103A400083462068033835F05DFB03460420594661
:103A500014E000BF0010014038DA030867666666AC
:103A6000000010410000B4420000E0403C1E002075
:103A7000642200200000204100005041704AFEF7FF
:103A8000D7FFB068294635F089FA494635F086FAFD
:103A900083462068033835F035FB03460520594638
:103AA0004246FEF7C5FF206835F02CFB0346062092
:103AB00029463A46FEF7BCFF504621F047FC28460F
:103AC000316835F069FA83462068033835F01AFB0F
:103AD0000346012059464246FEF7AAFFF0682946F0
:103AE00035F05CFA8346206835F00CFB0346022073
:103AF00059463A46FEF79CFF7068294635F04EFA63
:103B0000494635F04BFA8346206835F0FBFA034608
:103B1000032059463A46FEF78BFF2846316935F0B7
:103B20003BFA83462068033835F0ECFA034604205C
:103B30005946434AFEF77CFF2846B16835F02CFA17
:103B400083462068033835F0DDFA034605205946E0
:103B50004246FEF76DFF7069294635F01FFA83462D
:103B6000206835F0CFFA0346062059463A46FEF75C
:103B70005FFF504621F0EAFB2846316835F00CFA29
:103B80008346206835F0BEFA0346012059463A467E
:103B9000FEF74EFFF068294635F000FA83462068AC
:103BA00035F0B0FA0346022059463A46FEF740FF88
:103BB0007068294635F0F2F9494635F0EFF9834649
:103BC000206835F09FFA0346032059463A46FEF72F
:103BD0002FFF2846316935F0DFF98346206835F03C
:103BE00091FA0346042059463A46FEF721FF28463B
:103BF000B16835F0D1F98346206835F083FA034681
:103C0000052059463A46FEF713FF7069294635F0FC
:103C1000C5F90646206835F075FA03460620314698
:103C20003A46FEF705FF504621F090FB009A01321C
:103C30000092019B9342BFF6CFAD03B0BDE8F08F79
:103C4000000028412DE9F04F83B004468946AE4874
:103C5000AE49FDF76FF9AE4B83FB0423A3EBE4738E
:103C6000019300206FF00201AA4AFEF7E9FD32201D
:103C700021F06CFB019B002B40F31A824FF0010AEC
:103C8000A54DDFF8A482A54FA54E7069294635F0F1
:103C900085F98346A34C2068033835F033FA034690
:103CA000012059464246FEF7C3FE206835F02AFA45
:103CB0000346022029463A46FEF7BAFE206835F050
:103CC00021FA0346032029463A46FEF7B1FE706802
:103CD000294635F063F983462068033835F012FA37
:103CE0000346042059464246FEF7A2FEF0682946E4
:103CF00035F054F983462068033835F003FA03465B
:103D0000052059464246FEF793FE206835F0FAF941
:103D10000346062029463A46FEF78AFE484621F029
:103D200015FB2846716935F037F98346206803385A
:103D300035F0E8F90346012059464246FEF778FE81
:103D4000B068294635F02AF98346206835F0DAF95B
:103D50000346022059463A46FEF76AFE3069294674
:103D600035F01CF98346206835F0CCF90346032072
:103D700059463A46FEF75CFE2846716835F00CF964
:103D800083462068033835F0BDF9034604205946C0
:103D90004246FEF74DFE2846F16835F0FDF88346B1
:103DA0002068033835F0AEF90346052059464246EF
:103DB000FEF73EFE3068294635F0F0F8834620686D
:103DC00035F0A0F90346062059463A46FEF730FE84
:103DD000484621F0BBFA2846716935F0DDF8834684
:103DE000206835F08FF90346012059463A46FEF720
:103DF0001FFEB068294635F0D1F88346206835F0BB
:103E000081F90346022059463A46FEF711FE306911
:103E1000294635F0C3F88346206835F073F9034628
:103E2000032059463A46FEF703FE2846716835F0EE
:103E3000B3F88346206835F065F9034604205946F7
:103E40003A46FEF7F5FD2846F16835F0A5F88346B9
:103E5000206835F057F90346052059463A46FEF7E3
:103E6000E7FD3068294635F099F88346206835F03B
:103E700049F90346062059463A46FEF7D9FD484619
:103E800021F064FA206835F03DF903460120294607
:103E90003A46FEF7CDFDB068294635F07FF88346F7
:103EA0002068033835F02EF9034602205946424671
:103EB000FEF7BEFD3069294635F070F8834620686C
:103EC000033835F01FF90346032059464246FEF7F2
:103ED000AFFD206835F016F90346042029463A461E
:103EE000FEF7A6FD206835F00DF9034605202946AA
:103EF0003A46FEF79DFD3068294635F04FF8834677
:103F00002068033812E000BF0010014038DA0308CF
:103F100056555555000010410000B4420000E040E5
:103F2000642200203C1E00200000204135F0EAF809
:103F30000346062059464246FEF77AFD484621F0E0
:103F400005FA7069294635F029F88346206835F06E
:103F5000D9F80346012059463A46FEF769FD28463E
:103F6000B16835F019F883462068033835F0CAF88F
:103F70000346022059464246FEF75AFD284631695B
:103F800035F00AF883462068033835F0BBF803465D
:103F9000032059464246FEF74BFD7068294634F02F
:103FA000FDFF8346206835F0ADF8034604205946EE
:103FB0003A46FEF73DFDF068294634F0EFFF8346B0
:103FC000206835F09FF80346052059463A46FEF72B
:103FD0002FFD2846316834F0DFFF83462068033820
:103FE00035F090F80346062059464246FEF720FD7C
:103FF000484621F0ABF97069294634F0CFFF83467B
:10400000206835F07FF80346012059463A46FEF70E
:104010000FFD2846B16834F0BFFF8346206835F0B5
:1040200071F80346022059463A46FEF701FD28463C
:10403000316934F0B1FF8346206835F063F80346F8
:10404000032059463A46FEF7F3FC7068294634F0DF
:10405000A5FF8346206835F055F8034604205946ED
:104060003A46FEF7E5FCF068294634F097FF8346B0
:10407000206835F047F80346052059463A46FEF7D2
:10408000D7FC2846316834F087FF0646206835F0B3
:1040900039F80346062031463A46FEF7C9FC484641
:1040A00021F054F90AF1010A019A5245BFF6ECAD2C
:1040B00003B0BDE8F08F00BF2DE9F84307460C467A
:1040C00005480649FCF736FF022C09D0052C00F004
:1040D0008B81BDE8F88300BF0010014050DA03086F
:1040E00000200221AB4AFEF7ABFB322021F02EF973
:1040F000A94D2868A94934F051FF8046A84EA94C23
:10410000206834F0FFFF0346012041463246FEF7A7
:104110008FFCE868A14934F041FF8146DFF88C82CA
:104120002068033834F0EEFF034602204946424639
:10413000FEF77EFC9948696834F02EFF81462068BE
:10414000033834F0DFFF0346032049464246FEF7BA
:104150006FFC9248296934F01FFF8146206834F0D3
:10416000D1FF0346042049463246FEF761FCA868A9
:104170008A4934F013FF8146206834F0C3FF0346B8
:10418000052049463246FEF753FC6869834934F0FE
:1041900005FF81462068033834F0B4FF034606204B
:1041A00049464246FEF744FC384621F0CFF82868DD
:1041B0007A4934F0F3FE8146206834F0A3FF0346C9
:1041C000012049463246FEF733FCE868734934F073
:1041D000E5FE8146206834F095FF034602204946FB
:1041E0003246FEF725FC6D48696834F0D5FE8146FD
:1041F000206834F087FF0346032049463246FEF725
:1042000017FC6648296934F0C7FE8146206834F0FF
:1042100079FF0346042049463246FEF709FCA868A8
:104220005E4934F0BBFE8146206834F06BFF0346E4
:10423000052049463246FEF7FBFB6869574934F0D2
:10424000ADFE8146206834F05DFF034606204946F6
:104250003246FEF7EDFB384621F078F84F482968E2
:1042600034F09AFE81462068033834F04BFF034651
:10427000012049464246FEF7DBFB4848E96834F036
:104280008BFE8146206834F03DFF034602204946FC
:104290003246FEF7CDFB6868404934F07FFE814628
:1042A000206834F02FFF0346032049463246FEF7CC
:1042B000BFFB2869394934F071FE81462068033814
:1042C00034F020FF034604204946374AFEF7B0FB8E
:1042D0003248A96834F060FE81462068033834F023
:1042E00011FF0346052049464246FEF7A1FB2B4835
:1042F000696934F051FE8046206834F003FF0346BC
:10430000062041463246FEF793FB384621F01EF860
:104310002248296834F040FE8046206834F0F2FEDE
:104320000346012041463246FEF782FB1B48E968FE
:1043300034F032FE8046206834F0E4FE034602206A
:1043400041463246FEF774FB6868144934F026FE95
:104350008046206834F0D6FE0346032041463246AC
:10436000FEF766FB28690D4934F018FE8046206888
:1043700034F0C8FE0346042041463246FEF758FB9F
:104380000648A96834F008FE8046206834F0BAFE7A
:104390000EE000BF00001041642200200000B44283
:1043A0000000E0403C1E00200000284100002041A9
:1043B0000346052041463246FEF73AFB0948696943
:1043C00034F0EAFD0546206834F09CFE03460620E2
:1043D00029463246FEF72CFB384620F0B7FFBDE8F1
:1043E000F88300BF0000B44200200521AB4AFEF76D
:1043F00027FA322020F0AAFFA94D2868A94934F0F5
:10440000CDFD8046A84EA94C206834F07BFE0346C3
:10441000012041463246FEF70BFBE868A14934F023
:10442000BDFD8146DFF88C822068033834F06AFED7
:104430000346022049464246FEF7FAFA994869685F
:1044400034F0AAFD81462068033834F05BFE034651
:10445000032049464246FEF7EBFA9248296934F0B8
:104460009BFD8146206834F04DFE034604204946FA
:104470003246FEF7DDFAA8688A4934F08FFD81469E
:10448000206834F03FFE0346052049463246FEF7D9
:10449000CFFA6869834934F081FD8146206803388A
:1044A00034F030FE0346062049464246FEF7C0FA85
:1044B000384620F04BFF28687A4934F06FFD81467A
:1044C000206834F01FFE0346012049463246FEF7BD
:1044D000AFFAE868734934F061FD8146206834F032
:1044E00011FE0346022049463246FEF7A1FA6D4806
:1044F000696834F051FD8146206834F003FE0346BC
:10450000032049463246FEF793FA6648296934F09B
:1045100043FD8146206834F0F5FD034604204946FA
:104520003246FEF785FAA8685E4934F037FD8146C9
:10453000206834F0E7FD0346052049463246FEF781
:1045400077FA6869574934F029FD8146206834F0CC
:10455000D9FD0346062049463246FEF769FA384639
:1045600020F0F4FE4F48296834F016FD814620689B
:10457000033834F0C7FD0346012049464246FEF7A2
:1045800057FA4848E96834F007FD8146206834F05E
:10459000B9FD0346022049463246FEF749FA6868EB
:1045A000404934F0FBFC8146206834F0ABFD034603
:1045B000032049463246FEF73BFA2869394934F070
:1045C000EDFC81462068033834F09CFD034604204E
:1045D0004946374AFEF72CFA3248A96834F0DCFC29
:1045E00081462068033834F08DFD03460520494696
:1045F0004246FEF71DFA2B48696934F0CDFC80462F
:10460000206834F07FFD0346062041463246FEF71F
:104610000FFA384620F09AFE2248296834F0BCFC94
:104620008046206834F06EFD034601204146324644
:10463000FEF7FEF91B48E96834F0AEFC80462068BE
:1046400034F060FD0346022041463246FEF7F0F9A1
:104650006868144934F0A2FC8046206834F052FDAA
:104660000346032041463246FEF7E2F928690D4928
:1046700034F094FC8046206834F044FD0346042066
:1046800041463246FEF7D4F90648A96834F084FC66
:104690008046206834F036FD0EE000BF0000104177
:1046A000642200200000B4420000E0403C1E0020D4
:1046B00000002841000020410346052041463246C3
:1046C000FEF7B6F90948696934F066FC05462068CA
:1046D00034F018FD0346062029463246FEF7A8F9B5
:1046E000384620F033FEBDE8F88300BF0000B44236
:1046F0002DE9F84307460C4605480649FCF71AFC25
:10470000022C09D0052C00F08B81BDE8F88300BF96
:10471000001001406CDA030800200221AB4AFEF7CA
:104720008FF8322020F012FEA94DAA48296834F0F3
:1047300033FC8046A84EA94C206834F0E3FC0346C5
:10474000012041463246FEF773F9A248E96834F089
:1047500023FC8146DFF88C822068033834F0D2FCD9
:104760000346022049464246FEF762F968689949C5
:1047700034F014FC81462068033834F0C3FC03464F
:10478000032049464246FEF753F92869914934F01F
:1047900005FC8146206834F0B5FC034604204946F8
:1047A0003246FEF745F98B48A96834F0F5FB81469F
:1047B000206834F0A7FC0346052049463246FEF740
:1047C00037F98448696934F0E7FB8146206803388B
:1047D00034F098FC0346062049464246FEF728F985
:1047E000384620F0B3FD7B48296834F0D5FB81467C
:1047F000206834F087FC0346012049463246FEF724
:1048000017F97448E96834F0C7FB8146206834F032
:1048100079FC0346022049463246FEF709F96868EA
:104820006C4934F0BBFB8146206834F06BFC0346D6
:10483000032049463246FEF7FBF82869654934F003
:10484000ADFB8146206834F05DFC034604204946F8
:104850003246FEF7EDF85F48A96834F09DFB8146CB
:10486000206834F04FFC0346052049463246FEF7E7
:10487000DFF85848696934F08FFB8146206834F0CE
:1048800041FC0346062049463246FEF7D1F8384639
:1048900020F05CFD28684F4934F080FB8146206899
:1048A000033834F02FFC0346012049464246FEF708
:1048B000BFF8E868474934F071FB8146206834F05E
:1048C00021FC0346022049463246FEF7B1F8414832
:1048D000696834F061FB8146206834F013FC0346BC
:1048E000032049463246FEF7A3F83A48296934F0D6
:1048F00053FB81462068033834F004FC034604204F
:104900004946374AFEF794F8A868324934F046FB26
:1049100081462068033834F0F5FB034605204946FC
:104920004246FEF785F868692A4934F037FB80462D
:10493000206834F0E7FB0346062041463246FEF786
:1049400077F8384620F002FD2868224934F026FB2B
:104950008046206834F0D6FB0346012041463246AB
:10496000FEF766F8E8681B4934F018FB80462068BB
:1049700034F0C8FB0346022041463246FEF758F8A1
:104980001448696834F008FB8046206834F0BAFBAC
:104990000346032041463246FEF74AF80D4829698E
:1049A00034F0FAFA8046206834F0ACFB0346042069
:1049B00041463246FEF73CF8A868064934F0EEFA64
:1049C0008046206834F09EFB0EE000BF00001041DE
:1049D000642200200000B4420000E0403C1E0020A1
:1049E0000000284100002041034605204146324690
:1049F000FEF71EF86869094934F0D0FA05462068C8
:104A000034F080FB0346062029463246FEF710F8B4
:104A1000384620F09BFCBDE8F88300BF0000B4429C
:104A200000200521AB4AFDF70BFF322020F08EFC61
:104A3000A94DAA48296834F0AFFA8046A84EA94C7F
:104A4000206834F05FFB0346012041463246FDF703
:104A5000EFFFA248E96834F09FFA8146DFF88C82C4
:104A60002068033834F04EFB034602204946424694
:104A7000FDF7DEFF6868994934F090FA81462068B6
:104A8000033834F03FFB0346032049464246FDF716
:104A9000CFFF2869914934F081FA8146206834F0CB
:104AA00031FB0346042049463246FDF7C1FF8B48DF
:104AB000A96834F071FA8146206834F023FB03467C
:104AC000052049463246FDF7B3FF8448696934F052
:104AD00063FA81462068033834F014FB034606204D
:104AE00049464246FDF7A4FF384620F02FFC7B489C
:104AF000296834F051FA8146206834F003FB0346FC
:104B0000012049463246FDF793FF7448E96834F0C6
:104B100043FA8146206834F0F5FA034602204946FC
:104B20003246FDF785FF68686C4934F037FA8146F4
:104B3000206834F0E7FA0346032049463246FDF781
:104B400077FF2869654934F029FA8146206834F0F6
:104B5000D9FA0346042049463246FDF769FF5F480B
:104B6000A96834F019FA8146206834F0CBFA03467C
:104B7000052049463246FDF75BFF5848696934F025
:104B80000BFA8146206834F0BDFA034606204946F8
:104B90003246FDF74DFF384620F0D8FB28684F49D4
:104BA00034F0FCF981462068033834F0ABFA034650
:104BB000012049464246FDF73BFFE868474934F08B
:104BC000EDF98146206834F09DFA034602204946FB
:104BD0003246FDF72DFF4148696834F0DDF9814622
:104BE000206834F08FFA0346032049463246FDF729
:104BF0001FFF3A48296934F0CFF98146206803380D
:104C000034F080FA034604204946374AFDF710FF86
:104C1000A868324934F0C2F981462068033834F07C
:104C200071FA0346052049464246FDF701FF6869CF
:104C30002A4934F0B3F98046206834F063FA034619
:104C4000062041463246FDF7F3FE384620F07EFB53
:104C50002868224934F0A2F98046206834F052FADC
:104C60000346012041463246FDF7E2FEE8681B4953
:104C700034F094F98046206834F044FA0346022068
:104C800041463246FDF7D4FE1448696834F084F991
:104C90008046206834F036FA034603204146324607
:104CA000FDF7C6FE0D48296934F076F98046206884
:104CB00034F028FA0346042041463246FDF7B8FE98
:104CC000A868064934F06AF98046206834F01AFA78
:104CD0000EE000BF00001041642200200000B4423A
:104CE0000000E0403C1E0020000028410000204160
:104CF0000346052041463246FDF79AFE6869094998
:104D000034F04CF90546206834F0FCF903460620DF
:104D100029463246FDF78CFE384620F017FBBDE8E9
:104D2000F88300BF0000B4422DE9F84F81468C485B
:104D30008C49FCF7FFF8002005218B4AFDF780FD28
:104D4000322020F003FB894E3068894934F026F97F
:104D50000546884F884C206834F0D4F9034601207A
:104D600029463A46FDF764FEF068814934F016F9A9
:104D70000546DFF80C822068033834F0C3F9034697
:104D8000022029464246FDF753FE794D4FF0824AF4
:104D90002068013834F0B6F903460320294652460C
:104DA000FDF746FE2068013834F0ACF903460420D4
:104DB00029463A46FDF73CFEB068294634F0EEF845
:104DC0006E4934F0EBF883462068033834F09AF9E2
:104DD0000346052059464246FDF72AFE70692946DA
:104DE00034F0DCF8654934F0D9F88346206834F0B3
:104DF00089F90346062059463A46FDF719FE48460A
:104E000020F0A4FA2846316834F0C6F883462068BA
:104E1000033834F077F90346012059464246FDF73E
:104E200007FEF068294634F0B9F88346206834F06C
:104E300069F90346022059463A46FDF7F9FD206814
:104E4000013834F05FF90346032029465246FDF746
:104E5000EFFD2068013834F055F903460420294657
:104E60003A46FDF7E5FDB068294634F097F8434926
:104E700034F094F88346206834F044F90346052062
:104E800059463A46FDF7D4FD2846716934F084F856
:104E90003A4934F081F883462068033834F032F917
:104EA0000346062059464246FDF7C2FD484620F01B
:104EB0004DFA2846316834F06FF88046206834F0A7
:104EC00021F90346012041463A46FDF7B1FD284647
:104ED000F16834F061F88046206834F013F9034635
:104EE000022041463A46FDF7A3FD2068013834F020
:104EF00009F90346032029465246FDF799FD20682B
:104F0000013834F0FFF80346042029463A46FDF7FD
:104F10008FFD2846B16834F03FF8184934F03CF86A
:104F20008046206834F0EEF80346052041463A46B4
:104F3000FDF77EFD2846716934F02EF80F4934F0F4
:104F40002BF80546206834F0DDF803460620294694
:104F50003A46FDF76DFD484620F0F8F9BDE8F88FB8
:104F600000100140E0DB0308000010416422002033
:104F70000000B4420000E0403C1E00200000A040C1
:104F8000000020412DE9F84F81468C488C49FBF701
:104F9000D1FF002005218B4AFDF752FC322020F082
:104FA000D5F9894E8948316833F0F6FF0546884FB8
:104FB000884C206834F0A6F80346012029463A467A
:104FC000FDF736FD8148F16833F0E6FF0546DFF86E
:104FD0000C822068033834F095F8034602202946F5
:104FE0004246FDF725FD794D4FF0824A2068013891
:104FF00034F088F80346032029465246FDF718FD91
:105000002068013834F07EF80346042029463A46E9
:10501000FDF70EFD2846B16833F0BEFF6E4933F050
:10502000BBFF83462068033834F06CF80346052044
:1050300059464246FDF7FCFC2846716933F0ACFF47
:10504000654933F0A9FF8346206834F05BF80346D6
:10505000062059463A46FDF7EBFC484620F076F923
:105060003068294633F09AFF83462068033834F0CD
:1050700049F80346012059464246FDF7D9FC284627
:10508000F16833F089FF8346206834F03BF803462B
:10509000022059463A46FDF7CBFC2068013834F02F
:1050A00031F80346032029465246FDF7C1FC20682B
:1050B000013834F027F80346042029463A46FDF724
:1050C000B7FC2846B16833F067FF434933F064FF0B
:1050D0008346206834F016F80346052059463A46C0
:1050E000FDF7A6FC7069294633F058FF3A4933F0C2
:1050F00055FF83462068033834F004F80346062041
:1051000059464246FDF794FC484620F01FF93068A6
:10511000294633F043FF8046206833F0F3FF03460F
:10512000012041463A46FDF783FCF068294633F0FA
:1051300035FF8046206833F0E5FF034602204146F4
:105140003A46FDF775FC2068013833F0DBFF034673
:10515000032029465246FDF76BFC2068013833F0E6
:10516000D1FF0346042029463A46FDF761FCB068AA
:10517000294633F013FF184933F010FF80462068AA
:1051800033F0C0FF0346052041463A46FDF750FC88
:105190007069294633F002FF0F4933F0FFFE0546E0
:1051A000206833F0AFFF0346062029463A46FDF754
:1051B0003FFC484620F0CAF8BDE8F88F00100140D7
:1051C000FCDB030800001041642200200000B44210
:1051D0000000E0403C1E00200000A04000002041F4
:1051E00070B50420012100F01BFF1A4910230B6049
:1051F00003230B710024CC7117481FF05FFF4FF49D
:105200000070012100F028FF1448046044608460AD
:10521000C46001F025FC12494FF000720A600C7165
:1052200001254D718C60CC600C610D750D4E3046C2
:1052300001F0EEFB3046294601F028FC30462946B5
:1052400001F080FC30460E212A46234601F02AFC5C
:1052500070BD00BFDC1B0020000802402C1D002098
:10526000D81800200021014038B5294C204601F013
:1052700063FC204601F072FC204601F06FFC254CD7
:105280002060254D28462549FBF754FE2846244931
:105290002268FBF74FFE23680F2B03D80122214B16
:1052A0001A802DE0A3F12D021E2A03D802221D4BE5
:1052B0001A8025E0A3F150022D2A03D80322194BAE
:1052C0001A801DE0A3F187022D2A03D80422154B72
:1052D0001A8015E0A3F1B702442A03D80522114B26
:1052E0001A800DE0FB2B03D906220E4B1A8007E033
:1052F00000220C4B1A8008480B49FBF71BFE38BDF7
:1053000005480A49074B1A88FBF714FE38BD00BF51
:1053100000210140642300200010014070DE0308DA
:1053200094DE030854220020B0DE0308C4DE030824
:1053300070B52FF035FD002001462FF02DFD474CB4
:1053400020464749474B1A68474B1B6834F0DAF947
:1053500020462FF015FD052001212FF01DFD434DA6
:10536000204643492A8834F0CDF920462FF008FD25
:105370002B88013B052B60D8DFE803F003122132B4
:105380004152002002212FF007FD344E3446394DA2
:105390000FCD0FC42B68237030462FF0F1FC4CE08A
:1053A000002002212FF0F8FC2C4E3446324D0FCD58
:1053B0000FC42B68237030462FF0E2FC3DE0002044
:1053C00002212FF0E9FC254C2C4A234607CA03C3CF
:1053D00023F8022B120C1A7020462FF0D1FC2CE07F
:1053E000002002212FF0D8FC1C4E3446244D0FCD56
:1053F0000FC42B68237030462FF0C2FC1DE0002044
:1054000002212FF0C9FC154D1E4B2C460FCB07C4B3
:1054100024F8023B1B0C237028462FF0B1FC0CE053
:10542000002002212FF0B8FC0C4D174B2C460FCB5F
:1054300007C4237028462FF0A3FC022003212FF07D
:10544000ABFC064D114B2C460FCB07C423702846EE
:105450002FF096FC64201FF079FF70BDB01500207E
:10546000D4DE030824120020201200205422002041
:10547000E8DE0308F0DE030804DF030818DF030892
:1054800024DF030838DF030848DF030858DF030878
:1054900008B51020012100F0C3FD074920230B604F
:1054A00000230B718B7103234B710223CB710348D3
:1054B0001FF004FE08BD00BFDC1B002000100240EE
:1054C0002DE9F0411020012100F0AAFD104C4023ED
:1054D000236000252571A5714FF0030884F805802D
:1054E0000227E7710B4E304621461FF0E7FD1020E2
:1054F000012100F095FD802323602571A57184F8BA
:105500000580E771304621461FF0D8FDBDE8F081E7
:10551000DC1B00200010024008B5FFF7B9FFFFF7C1
:10552000CFFF08BD08B50420012100F079FD07492F
:105530004FF400530B6001230B7100228A71032288
:105540004A71CB7102481FF0B9FD08BDDC1B002079
:1055500000080240704700BF08B50820012100F094
:105560005FFD074902230B6001230B7100238B7140
:1055700003224A71CB7103481FF0A0FD08BD00BF94
:10558000DC1B00200000024008B50120014600F0AD
:1055900047FD074920230B6001230B7100238B710A
:1055A00003224A71CB7103481FF088FD08BD00BF7C
:1055B000DC1B00200000024030B585B0082001212E
:1055C00000F03CFD42F2CF03ADF804300024ADF80A
:1055D00006404FF47A730293ADF80C408DF80E40FC
:1055E0000E4D284601A931F04FF82846012131F02F
:1055F0008FF828460121224631F098F832238DF8A1
:1056000000308DF801408DF8024001238DF8033001
:1056100068462FF0D3FB05B030BD00BF000C004042
:1056200008B52D48012131F091F8002852D02B4BBC
:105630001B68002B30D12A4B1B8823B92948022133
:105640001FF08CFD42E0284B1B88012B07D1254819
:1056500002211FF081FD0222234B1A8008E0022B59
:1056600006D1204802211FF079FD01221E4B1A802D
:105670001B4A138801339BB21380B3F57A6F25D38D
:10568000184802211FF06AFD0022154B1A801248AB
:10569000012131F04BF819E0012B17D10022104BFA
:1056A0001A80114B1B88012B07D10E4802211FF0D5
:1056B00053FD02220C4B1A8008E0022B06D1094848
:1056C00002211FF04BFD0122074B1A8002480121E5
:1056D00031F048F808BD00BF000C0040D81300208E
:1056E000CE1300200000024052070020FEE700BF5A
:1056F00010B50F4B0F4A9A420DD2131D0E4CE41AEF
:1057000024F003040434002310460C495A581A505C
:105710000433A342FAD10A480A494FF000028842F2
:10572000B8BF40F8042BFFF6FAAF00F009F910BD3E
:10573000541000200000002057100020440A0408E4
:1057400054100020C04A00202DE9F8431FF01CFD32
:105750001FF0BEFD00F060FF32201FF0F7FD2FF0BC
:1057600003FB2FF021FB2FF01BFB2FF019FB022076
:1057700000212FF011FB644CDFF8BC81274698E82C
:10578000070003C73A80120C07F8022F20462FF0BB
:10579000F7FA052001212FF0FFFADFF8A09199E830
:1057A00003002060A180090CA17120462FF0E8FAC7
:1057B000012002212FF0F0FA544E254696E80F0002
:1057C00007C52B801B0C05F8023F20462FF0D8FAA6
:1057D000012003212FF0E0FA4D4BA6460FCBAEE897
:1057E0000700AEF800301B0C2B7020462FF0C8FAD3
:1057F0004FF4FA701FF0AAFD2FF018FB4FF416506B
:10580000FBF784FA4FF4165000F050FC4FF416509A
:10581000FBF78EF93F48FAF7B7FCFFF77DFEFFF77D
:1058200081FEFFF799FEFFF7C7FEFFF7D9FCFFF7F0
:105830001BFDFFF7A9FE1EF0B3FB1EF01DFC1FF0C1
:105840002DF930F0C7FF01F03BFD2EF06FFE00F0A8
:10585000B5FE2FF0A5FA022000212FF09DFA234675
:1058600098E8070003C31A80120C3A7020462FF004
:1058700087FA052001212FF08FFA99E803002060B4
:10588000A180090CA17120462FF07AFA0120022193
:105890002FF082FA274696E80F0007C73B801B0CC3
:1058A0002B7020462FF06CFA032001462FF074FA7B
:1058B000194A234607CA03C31A8020462FF060FA0C
:1058C00032201FF043FD154C20461549FBF732FBF3
:1058D00020461449FBF72EFB20461349FBF72AFB11
:1058E000124D20462946FBF725FB20462946FBF7AB
:1058F00021FB20460E49FBF71DFB20460D49FBF717
:1059000019FBBDE8F88300BFB015002070DF030865
:1059100080DF030840420F0090DF030800100140C1
:105920009CDF0308B0DF0308E4DF0308FCDF0308A3
:1059300000E0030804E0030898DB030868DF0308BD
:105940002DE9F041FFF700FFE62000F071FE40F284
:10595000DC50002120F07CFF1EF08EFBFCF708FCE1
:10596000FCF72CFB10B32FF01BFA002001462FF0A0
:1059700013FA7E4D7E4B2C460FCB07C424F8023B16
:105980001B0C237028462FF0FBF90123794A136082
:10599000794A1360794A1360794A1360794A13602F
:1059A000794A1360794A1360794A1360794B1B680E
:1059B000002B02DC0A22774B1A60774B1A68774B70
:1059C0001B681A445208764B1A60764B187800F020
:1059D000BDFB754B187800F0B9FB744C744D754ED7
:1059E00041E0204620211FF0B1FB012846D0284687
:1059F00001211FF0ABFB002840D0204640211FF0C2
:105A0000A5FB01280CD14027204639461FF09EFBFC
:105A10000128F9D03368D3F1010338BF0023336084
:105A2000204680211FF092FB01280DD180272046BF
:105A300039461FF08BFB0128F9D05F4B1A68D2F171
:105A4000010238BF00221A60FFF70EFCFFF770FC5E
:105A5000204620211FF07AFB01280FD02846012183
:105A60001FF074FB50B1204620211FF06FFB28B9B6
:105A7000284601211FF06AFB0128B2D04B482021A3
:105A80001FF064FB4A4801211FF060FB0120FFF773
:105A900061FD4A484A49FBF74DFA2FF081F905208C
:105AA00000212FF079F9314C464A234607CA03C337
:105AB00023F8022B120C1A7020462FF061F90420F3
:105AC00001212FF069F9404A234607CA03C31A800F
:105AD00020462FF055F9002002212FF05DF92546D0
