:020000040800F2
:10000000A0040020F10E0008510F0008510F000855
:10001000510F0008510F0008510F000800000000A8
:10002000000000000000000000000000510F000868
:10003000510F000800000000510F0008A501000842
:10004000510F0008510F0008510F0008510F000810
:10005000510F0008510F0008510F0008510F000800
:10006000510F0008510F0008510F0008510F0008F0
:10007000510F0008510F0008510F0008510F0008E0
:10008000510F0008510F0008510F0008510F0008D0
:10009000510F0008510F0008510F0008510F0008C0
:1000A000510F0008510F0008510F0008510F0008B0
:1000B000510F0008510F0008DD040008510F00081F
:1000C000510F0008510F0008510F0008510F000890
:1000D000510F0008B9050008510F0008510F000822
:1000E000510F0008510F0008510F000800000000D8
:1000F0000000000000000000000000000000000000
:1001000000000000000000005FF808F180B483B038
:1001100000AF03463960FB7197F90730002B0BDA0B
:100120000D49FB7903F00F03043B3A68D2B2120188
:10013000D2B20B441A7609E0084997F907303A68B9
:10014000D2B21201D2B20B4483F8002300BF0C37A5
:10015000BD4680BC704700BF00ED00E000E100E05C
:1001600080B582B000AF78607B68B3F1807F01D347
:10017000012311E00A4A7B6823F07F43013B53606F
:100180000F214FF0FF30FFF7C1FF054B00229A60AF
:10019000034B07221A60002318460837BD4680BD6E
:1001A00010E000E080B400AF064B1B68002B04D0C9
:1001B000044B1B68013B034A136000BFBD4680BC73
:1001C000704700BF3000002080B500AF00F09EFDFA
:1001D000054B1B68054AA2FB03239B0C1846FFF73F
:1001E000BFFF00BF80BD00BF0000002083DE1B43B7
:1001F00080B483B000AF7860064A7B68136000BFAC
:10020000044B1B68002BFBD100BF0C37BD4680BCE4
:10021000704700BF3000002080B582B000AF78602A
:1002200003E04FF47A70FFF7E3FF7B685A1E7A60B1
:10023000002BF6D100BF0837BD4680BD80B485B025
:1002400000AF786039600023FB817B681B88FB81ED
:100250007B682E4A934213D07B682D4A93420FD07D
:100260007B68B3F1804F0BD07B682A4A934207D05A
:100270007B68294A934203D07B68284A934208D17D
:10028000FB8923F07003FB813B685A88FB89134389
:10029000FB817B68224A93420CD07B68214A9342BF
:1002A00008D0FB8923F44073FB813B68DA88FB8923
:1002B0001343FB817B68FA891A803B689A887B68C4
:1002C0009A853B681A887B681A857B680F4A934237
:1002D0000FD07B680E4A93420BD07B68124A934240
:1002E00007D07B68114A934203D07B68104A93423F
:1002F00004D13B681B7A9AB27B681A867B6801221C
:100300009A8200BF1437BD4680BC7047002C014064
:10031000003401400004004000080040000C004090
:100320000010004000140040004001400044014023
:100330000048014080B483B000AF78600B46FB708A
:10034000FB78002B08D07B681B889BB243F001032D
:100350009AB27B681A8007E07B681B889BB223F007
:1003600001039AB27B681A8000BF0C37BD4680BC7F
:10037000704700BF80B582B000AF786001210820CF
:1003800001F0A8F97B689AB2074B1A80064B10223D
:10039000DA70054B02229A700349044800F0DCFD34
:1003A00000BF0837BD4680BD64000020000C01403E
:1003B00080B582B000AF78600121082001F08AF991
:1003C0007B689AB2074B1A80064B0422DA70054B01
:1003D00002229A700349044800F0BEFD00BF0837AE
:1003E000BD4680BD64000020000C014080B500AF18
:1003F0000121042001F08CF9094B47221A80084B97
:100400004FF6FE729A80064B0022DA80044B0022DF
:100410005A8003490348FFF711FF00BF80BD00BFAA
:10042000580000200008004080B582B000AF78601E
:100430007B68002B0DD0012B00D015E001210C486A
:10044000FFF778FF0B4B00221A60094800F03AF8DA
:100450000AE000210648FFF76DFF054B9B8C9BB21D
:100460001A46044B1A6000BF00BF0837BD4680BD66
:10047000000800405400002080B582B000AF7860D2
:100480007B689BB219460E4800F04AFE0220FFF737
:10049000AFFE7B689BB21946094800F033FE052089
:1004A000FFF7A6FE7B689BB21946054800F038FEB0
:1004B0000520FFF79DFE00BF0837BD4680BD00BF89
:1004C000000C014080B483B000AF78607B680022EC
:1004D0009A8400BF0C37BD4680BC704780B400AF23
:1004E00000BFBD4680BC704780B582B000AF786069
:1004F000012144F2050001F0EDF81B4B4FF40072AE
:100500001A80194B03229A70174B1822DA70164979
:10051000164800F021FD144B4FF480621A80124BF4
:100520000422DA701049114800F016FD7B68104A69
:1005300013600F4B00229A800D4B0022DA800C4B87
:1005400000221A810A4B00229A81094B0C225A81FF
:100550000749084801F0FEFA0121064801F0B4FB02
:1005600000BF0837BD4680BD640000200008014080
:10057000680000200038014080B582B000AF78608C
:10058000396000BF8021786801F0D0FB0346002B62
:10059000F8D03B689BB21946786801F0B5FB00BF04
:1005A0004021786801F0C2FB0346002BF8D000BF61
:1005B0000837BD4680BD00BF80B582B000AF40F2B5
:1005C00025510B4801F0CEFB0346002B0BD000BF9A
:1005D0002021074801F0AAFB0346002BF8D0044B6A
:1005E0009B889BB2FB7100BF0837BD4680BD00BF32
:1005F0000038014080B500AF01210448FFF79AFEA2
:100600000248FFF75FFF00BF80BD00BF0008004049
:1006100080B582B000AF78600B4B9B8C9BB21A46C2
:100620007B689A4207DB094B01221A6000210648C9
:10063000FFF780FE02E0054B00221A60034B1B68A7
:1006400018460837BD4680BD0008004084000020E1
:1006500090B585B000AF78600023FB607B68072B06
:1006600000F2AE8201A252F823F000BF8D0600080E
:1006700037070008E10700087F0800081D09000887
:10068000BB0900086D0A0008170B00084FF48050E2
:10069000FFF770FE4FF48050FFF7EEFE4FF48050EE
:1006A000FFF786FEFFF7A6FF06E04CF25030FFF79B
:1006B000AFFF0346012B08D04FF48051C64800F02D
:1006C00007FD0346012BF0D000E000BFFFF792FFCB
:1006D00006E04CF25030FFF79BFF0346012B08D099
:1006E0004FF48051BC4800F0F3FC0346002BF0D0DF
:1006F00000E000BF0120FFF797FE10E04CF2503001
:10070000FFF786FF0346012B09D10021B348FFF70D
:1007100011FEB248FFF7D6FE0123FB6007E04FF45D
:100720008051AD4800F0D4FC0346012BE6D00020F8
:10073000FFF77AFE44E24FF40040FFF71BFE4FF450
:100740000040FFF799FE4FF40040FFF731FEFFF73E
:1007500051FF06E04CF25030FFF75AFF0346012BE1
:1007600008D04FF400419C4800F0B2FC0346012B36
:10077000F0D000E000BFFFF73DFF06E04CF2503044
:10078000FFF746FF0346012B08D04FF40041924883
:1007900000F09EFC0346002BF0D000E000BF0120DB
:1007A000FFF742FE10E04CF25030FFF731FF0346F6
:1007B000012B09D100218948FFF7BCFD8748FFF7CD
:1007C00081FE0123FB6007E04FF40041824800F006
:1007D0007FFC0346012BE6D00020FFF725FEEFE16A
:1007E0002020FFF7C7FD2020FFF746FE2020FFF75F
:1007F000DFFDFFF7FFFE06E04CF25030FFF708FF89
:100800000346012B07D02021734800F061FC03460A
:10081000012BF1D000E000BFFFF7ECFE06E04CF248
:100820005030FFF7F5FE0346012B07D020216A4820
:1008300000F04EFC0346002BF1D000E000BF012089
:10084000FFF7F2FD10E04CF25030FFF7E1FE0346F7
:10085000012B09D100216148FFF76CFD5F48FFF7CC
:1008600031FE0123FB6006E020215B4800F030FCF4
:100870000346012BE7D00020FFF7D6FDA0E10820BA
:10088000FFF778FD0820FFF7F7FD0820FFF790FD40
:10089000FFF7B0FE06E04CF25030FFF7B9FE03461A
:1008A000012B07D008214C4800F012FC0346012B15
:1008B000F1D000E000BFFFF79DFE06E04CF25030A3
:1008C000FFF7A6FE0346012B07D00821424800F09F
:1008D000FFFB0346002BF1D000E000BF0120FFF733
:1008E000A3FD10E04CF25030FFF792FE0346012BBF
:1008F00009D100213948FFF71DFD3848FFF7E2FD17
:100900000123FB6006E00821334800F0E1FB0346C9
:10091000012BE7D00020FFF787FD51E11020FFF702
:1009200029FD1020FFF7A8FD1020FFF741FDFFF77C
:1009300061FE06E04CF25030FFF76AFE0346012BE1
:1009400007D01021244800F0C3FB0346012BF1D04F
:1009500000E000BFFFF74EFE06E04CF25030FFF71C
:1009600057FE0346012B07D010211B4800F0B0FBB7
:100970000346002BF1D000E000BF0120FFF754FD3B
:1009800010E04CF25030FFF743FE0346012B09D133
:1009900000211248FFF7CEFC1048FFF793FD01231A
:1009A000FB6006E010210C4800F092FB0346012B8F
:1009B000E7D00020FFF738FD02E14FF48070FFF729
:1009C000D9FC4FF48070FFF757FD4FF48070FFF7AC
:1009D000EFFCFFF70FFE0AE0000C014000080040AA
:1009E0004CF25030FFF714FE0346012B08D04FF4B1
:1009F00080718F4800F06CFB0346012BF0D000E0C3
:100A000000BFFFF7F7FD06E04CF25030FFF700FEA5
:100A10000346012B08D04FF48071854800F058FB45
:100A20000346002BF0D000E000BF0120FFF7FCFCE4
:100A300010E04CF25030FFF7EBFD0346012B09D1DB
:100A400000217C48FFF776FC7A48FFF73BFD012345
:100A5000FB6007E04FF48071754800F039FB0346F6
:100A6000012BE6D00020FFF7DFFCA9E04FF4005097
:100A7000FFF780FC4FF40050FFF7FEFC4FF40050EE
:100A8000FFF796FCFFF7B6FD06E04CF25030FFF79B
:100A9000BFFD0346012B08D04FF40051644800F01D
:100AA00017FB0346012BF0D000E000BFFFF7A2FDCB
:100AB00006E04CF25030FFF7ABFD0346012B08D0A7
:100AC0004FF400515A4800F003FB0346002BF0D0CE
:100AD00000E000BF0120FFF7A7FC10E04CF250300F
:100AE000FFF796FD0346012B09D100215148FFF77E
:100AF00021FC5048FFF7E6FC0123FB6007E04FF4C0
:100B000000514B4800F0E4FA0346012BE6D00020E8
:100B1000FFF78AFC54E04FF48040FFF72BFC4FF4C2
:100B20008040FFF7A9FC4FF48040FFF741FCFFF73E
:100B300061FD06E04CF25030FFF76AFD0346012BE1
:100B400008D04FF480413A4800F0C2FA0346012B26
:100B5000F0D000E000BFFFF74DFD06E04CF2503052
:100B6000FFF756FD0346012B08D04FF48041304873
:100B700000F0AEFA0346002BF0D000E000BF0120E9
:100B8000FFF752FC10E04CF25030FFF741FD0346F6
:100B9000012B09D100212748FFF7CCFB2548FFF79F
:100BA00091FC0123FB6007E04FF48041204800F0F6
:100BB0008FFA0346012BE6D00020FFF735FC00BF7B
:100BC000FB68002B21D11C4B1B68184601F08EFCE2
:100BD00015A3D3E9002301F0FFFC03460C46184699
:100BE00021464FF000024FF0804301F01FFE034604
:100BF0000C461846214601F001FF0346D9B20F4AC0
:100C00007B6813440A461A7008E00C4A7B68134458
:100C100019780A4A7B6813440A461A7000BF1437D1
:100C2000BD4690BDAFF300809CC420B07268A13F68
:100C3000000C014000080040540000203400002057
:100C400080B500AF8021074800F042FA03461A46FB
:100C5000054B1A70044B1B7819460448FFF78CFCAF
:100C600000BF80BD000C01407C0000200038014026
:100C700080B500AF4FF40061074800F029FA034641
:100C80001A46064B1A70054B1B7819460448FFF7A5
:100C900073FC00BF80BD00BF000C0140400000207D
:100CA0000038014080B500AF154A154B1B6843F072
:100CB000010313601249124B5A68124B13404B60E8
:100CC0000F4A0F4B1B6823F0847323F480331360A7
:100CD0000B4A0B4B1B6823F480231360084A084B14
:100CE0005B6823F4FE035360054B4FF41F029A60C8
:100CF00000F078F8044B4FF000629A6000BF80BDAE
:100D0000001002400000FFF800ED00E080B485B064
:100D100000AF0023FB600023BB6000237B602C4BF3
:100D20005B6803F00C03FB60FB68042B07D0082B07
:100D300009D0002B33D1274B274A1A6033E0254BCB
:100D4000254A1A602FE0224B5B6803F47013BB60E6
:100D50001F4B5B6803F480337B60BB689B0C0233E2
:100D6000BB607B68002B06D1BB681C4A02FB03F307
:100D7000184A136017E0164B5B6803F40033002B2E
:100D800006D0BB68154A02FB03F3124A13600AE05F
:100D9000BB68114A02FB03F30E4A136003E00D4BDC
:100DA0000D4A1A6000BF0A4B5B6803F0F0031B0991
:100DB0000B4AD35CDBB2FB60064B1A68FB6822FA75
:100DC00003F3044A136000BF1437BD4680BC70476C
:100DD000001002400000002000127A0000093D00CF
:100DE0000400002080B500AF00F002F800BF80BD15
:100DF00080B483B000AF00237B6000233B603A4A9D
:100E0000394B1B6843F480331360374B1B6803F482
:100E100000333B607B6801337B603B68002B03D170
:100E20007B68B3F5A06FF0D12F4B1B6803F4003340
:100E3000002B02D001233B6001E000233B603B68B4
:100E4000012B4BD1294A294B1B6843F01003136037
:100E5000264A264B1B6823F003031360234A234BC7
:100E60001B6843F0020313601F4A1F4B5B6853600B
:100E70001D4A1D4B5B6853601B4A1B4B5B6843F468
:100E800080635360184A184B5B6823F47C135360EB
:100E9000154A154B5B6843F4E8135360124A124B32
:100EA0001B6843F08073136000BF0F4B1B6803F097
:100EB0000073002BF9D00C4A0B4B5B6823F0030343
:100EC0005360094A084B5B6843F00203536000BF5C
:100ED000054B5B6803F00C03082BF9D100BF0C37FE
:100EE000BD4680BC704700BF001002400020024099
:100EF00080B582B000AF114B7B60114B3B6007E0C7
:100F00003B681A1D3A607A68111D796012681A6090
:100F10003B680C4A9342F3D30B480C494FF0000254
:100F20008842B8BF40F8042BFADBFFF7BBFE00F0A5
:100F30003DF900BF0837BD4680BD00BFE42F000863
:100F40000000002030000020300000209C00002025
:100F500080B400AFFEE700BF80B489B000AF786016
:100F600039600023FB6100233B610023BB61002348
:100F7000FB6000237B610023BB603B68DB7803F0F0
:100F80000F03FB613B68DB7803F01003002B05D0F7
:100F90003B689B781A46FB691343FB613B681B88DF
:100FA000DBB2002B44D07B681B687B610023BB61F4
:100FB00038E00122BB6902FA03F3FB603B681B883F
:100FC0001A46FB6813403B613A69FB689A4226D196
:100FD000BB699B00FB600F22FB6802FA03F3BB6056
:100FE000BB68DB437A6913407B61FA69FB6802FAEC
:100FF00003F37A6913437B613B68DB78282B05D1C7
:101000000122BB699A407B685A6108E03B68DB7843
:10101000482B04D10122BB699A407B681A61BB69E5
:101020000133BB61BB69072BC3D97B687A691A603E
:101030003B681B88FF2B46D97B685B687B6100237C
:10104000BB613AE0BB690833012202FA03F3FB609B
:101050003B681B881A46FB6813403B613A69FB6892
:101060009A4227D1BB699B00FB600F22FB6802FA02
:1010700003F3BB60BB68DB437A6913407B61FA69A9
:10108000FB6802FA03F37A6913437B613B68DB7800
:10109000282B05D1BB69083301229A407B685A612D
:1010A0003B68DB78482B05D1BB69083301229A40A5
:1010B0007B681A61BB690133BB61BB69072BC1D96E
:1010C0007B687A695A6000BF2437BD4680BC704790
:1010D00080B485B000AF78600B467B800023FB7343
:1010E0007B689A687B881340002B02D00123FB7336
:1010F00001E00023FB73FB7B18461437BD4680BC20
:10110000704700BF80B483B000AF78600B467B802F
:101110007A887B681A6100BF0C37BD4680BC704777
:1011200080B483B000AF78600B467B807A887B68A0
:101130005A6100BF0C37BD4680BC704780B582B095
:1011400000AF00F0CBF84FF4803000F0F5F800F07D
:1011500021F90346FB71FB79012B23D1002000F01C
:1011600099F9002000F0CEF94FF4806000F0AEF95C
:101170004FF4E0114FF4803000F034F9012000F01A
:101180004FF900BF392000F0E1FA0346002BF9D0F7
:10119000022000F055F900BF00F06EF90346082B5D
:1011A000FAD100E0FEE70837BD4680BD80B500AF4C
:1011B000FFF7C4FF00F0AEFE4FF41650FFF794F9AE
:1011C000FFF702F83F4A3F4B9B6943F001039361ED
:1011D0003D4B4FF000725A60FFF708F93B4B1B681C
:1011E00019463B48FFF7C8F93A4B1B68194638487F
:1011F000FFF7C2F90620FFF72BFA374B9B79194608
:101200003348FFF7B9F90220FFF722FA324B9B78F7
:1012100019462F48FFF7B0F90320FFF719FA2E4BB4
:10122000DB7819462A48FFF7A7F90320FEF7F4FFF9
:1012300000F076FE0320FEF7EFFF0120FFF708FA2B
:10124000254B5B7819462248FFF796F90020FFF7F7
:10125000FFF9214B1B7819461D48FFF78DF9072030
:10126000FFF7F6F91C4BDB7919461948FFF784F9AB
:101270000320FEF7D1FF00F053FE0320FEF7CCFF62
:101280000420FFF7E5F9144B1B7919461048FFF7C6
:1012900073F90520FFF7DCF90F4B5B7919460C4811
:1012A000FFF76AF90320FEF7B7FF00F0C5FE00F074
:1012B0004FFFFFF7C5FCFFF7DBFC0320FEF7ACFF99
:1012C0008CE700BF00100240000001401400002025
:1012D00000380140180000203400002080B400AF26
:1012E000134A134B1B6843F0010313601049104B62
:1012F0005A68104B13404B600D4A0D4B1B6823F08E
:10130000847323F480331360094A094B1B6823F468
:1013100080231360064A064B5B6823F4FE03536088
:10132000034B4FF41F029A6000BFBD4680BC70475C
:10133000001002400000FFF880B483B000AF786076
:10134000134A134B1B6823F480331360104A104B6D
:101350001B6823F4802313607B68B3F5803F03D0C0
:10136000B3F5802F07D00DE0094A094B1B6843F401
:101370008033136006E0064A054B1B6843F4A02344
:10138000136000BF00BF0C37BD4680BC704700BF74
:101390000010024080B582B000AF00233B60002304
:1013A000FB710023BB71312000F0D0F90346BB7103
:1013B0003B6801333B603B68B3F5A06F02D0BB795B
:1013C000002BF0D0312000F0C1F90346002B02D0F1
:1013D0000123FB7101E00023FB71FB7918460837FC
:1013E000BD4680BD80B485B000AF78603960002311
:1013F000FB600A4B5B68FB60FB6823F47C13FB60BB
:101400007A683B681343FA681343FB60034AFB683E
:10141000536000BF1437BD4680BC704700100240C7
:1014200080B483B000AF0346FB71044AFB791360BC
:1014300000BF0C37BD4680BC704700BF6000424211
:1014400080B485B000AF78600023FB60094B5B6817
:10145000FB60FB6823F00303FB60FA687B681343BF
:10146000FB60044AFB68536000BF1437BD4680BC74
:10147000704700BF0010024080B400AF044B5B68AF
:10148000DBB203F00C03DBB21846BD4680BC7047EC
:101490000010024080B485B000AF78600023FB608C
:1014A000094B5B68FB60FB6823F0F003FB60FA68A4
:1014B0007B681343FB60044AFB68536000BF14372A
:1014C000BD4680BC704700BF0010024080B485B0AC
:1014D00000AF78600023FB60094B5B68FB60FB6832
:1014E00023F4E063FB60FA687B681343FB60044A03
:1014F000FB68536000BF1437BD4680BC704700BF17
:101500000010024080B485B000AF78600023FB601B
:10151000094B5B68FB60FB6823F46053FB607B68EE
:10152000DB00FA681343FB60034AFB68536000BFAB
:101530001437BD4680BC70470010024080B485B0AF
:1015400000AF78600023FB60094B5B68FB60FB68C1
:1015500023F44043FB60FA687B681343FB60044A52
:10156000FB68536000BF1437BD4680BC704700BFA6
:101570000010024080B487B000AF786000237B6128
:1015800000233B610023FB600023BB604C4B5B6886
:1015900003F00C037B617B69042B07D0082B09D077
:1015A000002B33D17B68474A1A6033E07B68454A99
:1015B0001A602FE0424B5B6803F470133B61404BB1
:1015C0005B6803F48033FB603B699B0C02333B6137
:1015D000FB68002B06D13B693B4A02FB03F27B68A8
:1015E0001A6017E0364B5B6803F40033002B06D01B
:1015F0003B69354A02FB03F27B681A600AE03B69EB
:10160000304A02FB03F27B681A6003E07B682D4AD4
:101610001A6000BF2A4B5B6803F0F0037B617B69B3
:101620001B097B61294A7B6913441B78DBB2BB60D1
:101630007B681A68BB68DA407B685A60204B5B683D
:1016400003F4E0637B617B691B0A7B611F4A7B6952
:1016500013441B78DBB2BB607B685A68BB68DA4016
:101660007B689A60164B5B6803F460537B617B690F
:10167000DB0A7B61154A7B6913441B78DBB2BB60D4
:101680007B685A68BB68DA407B68DA600C4B5B6841
:1016900003F440437B617B699B0B7B610C4A7B6954
:1016A00013441B78DBB2BB607B68DA68BB68B2FBB3
:1016B000F3F27B681A6100BF1C37BD4680BC7047DF
:1016C0000010024000127A0000093D001C000020BA
:1016D0002C00002080B483B000AF78600B46FB7014
:1016E000FB78002B06D00949084B9A697B681343A5
:1016F0008B6106E00549054B9A697B68DB43134023
:101700008B6100BF0C37BD4680BC704700100240A3
:1017100080B483B000AF78600B46FB70FB78002B81
:1017200006D00949084BDA697B681343CB6106E0B0
:101730000549054BDA697B68DB431340CB6100BF89
:101740000C37BD4680BC70470010024080B487B0A3
:1017500000AF0346FB710023FB6000237B61002385
:10176000FB74FB795B09DBB2FB60FB68012B03D1E7
:10177000124B1B687B6109E0FB68022B03D10F4B06
:101780001B6A7B6102E00D4B5B6A7B61FB7903F0B6
:101790001F03FB607A69FB6822FA03F303F001037D
:1017A000002B02D00123FB7401E00023FB74FB7CBF
:1017B00018461C37BD4680BC704700BF0010024071
:1017C00080B485B000AF786039600023FB600023EF
:1017D000FB727B685B68FB60FB6823F4702323F477
:1017E0008073FB603B681A683B681B791B021343DC
:1017F000FA681343FB607B68FA685A607B689B68F1
:10180000FB60FA68164B1340FB603B68DA683B6884
:101810009B681A433B685B795B001343FA68134388
:10182000FB607B68FA689A607B68DB6AFB60FB6838
:1018300023F47003FB603B681B7C013BDAB2FB7A4C
:101840001343FB72FB7A1B05FA681343FB607B684A
:10185000FA68DA6200BF1437BD4680BC704700BF2B
:10186000FDF7F1FF80B483B000AF78600B46FB70EA
:10187000FB78002B06D07B689B6843F001027B68F5
:101880009A6005E07B689B6823F001027B689A60A0
:1018900000BF0C37BD4680BC704700BF80B483B02A
:1018A00000AF78607B689B6843F008027B689A60B1
:1018B00000BF0C37BD4680BC704700BF80B485B008
:1018C00000AF78600023FB737B689B6803F008031C
:1018D000002B02D00123FB7301E00023FB73FB7B91
:1018E00018461437BD4680BC704700BF80B483B033
:1018F00000AF78607B689B6843F004027B689A6065
:1019000000BF0C37BD4680BC704700BF80B485B0B7
:1019100000AF78600023FB737B689B6803F00403CF
:10192000002B02D00123FB7301E00023FB73FB7B40
:1019300018461437BD4680BC704700BF80B483B0E2
:1019400000AF78600B46FB70FB78002B06D07B68FD
:101950009B6843F4A0027B689A6005E07B689B6803
:1019600023F4A0027B689A6000BF0C37BD4680BCA0
:10197000704700BF80B485B000AF7860084611465C
:101980001A460346FB700B46BB7013467B70002360
:10199000FB600023BB60FB78092B23D97B68DB68E5
:1019A000FB60FB78A3F10A0213465B001344072295
:1019B00002FA03F3BB60BB68DB43FA681340FB60C9
:1019C0007978FB78A3F10A0213465B00134401FA0D
:1019D00003F3BB60FA68BB681343FB607B68FA687B
:1019E000DA601EE07B681B69FB60FA7813465B00D7
:1019F0001344072202FA03F3BB60BB68DB43FA68B7
:101A00001340FB607978FA7813465B00134401FABF
:101A100003F3BB60FA68BB681343FB607B68FA683A
:101A20001A61BB78062B21D87B685B6BFB60BB78A7
:101A30005A1E13469B0013441F2202FA03F3BB6095
:101A4000BB68DB43FA681340FB60F978BB785A1E29
:101A500013469B00134401FA03F3BB60FA68BB68AA
:101A60001343FB607B68FA685A6347E0BB780C2B32
:101A700021D87B681B6BFB60BB78DA1F13469B0089
:101A800013441F2202FA03F3BB60BB68DB43FA680E
:101A90001340FB60F978BB78DA1F13469B001344B0
:101AA00001FA03F3BB60FA68BB681343FB607B6811
:101AB000FA681A6322E07B68DB6AFB60BB78A3F1FB
:101AC0000D0213469B0013441F2202FA03F3BB606E
:101AD000BB68DB43FA681340FB60F978BB78A3F17D
:101AE0000D0213469B00134401FA03F3BB60FA682E
:101AF000BB681343FB607B68FA68DA6200BF143787
:101B0000BD4680BC704700BF80B483B000AF786032
:101B10007B68DB6C9BB218460C37BD4680BC7047B7
:101B200080B485B000AF78600B46FB700023FB7378
:101B30007B681A68FB781340002B02D00123FB73EB
:101B400001E00023FB73FB7B18461437BD4680BCC5
:101B5000704700BF80B58CB000AF7860396000235B
:101B6000FB620023BB6200237B6200233B620023F5
:101B7000FB617B68FB617B681B8A9BB2FB62FA6A34
:101B80004CF6FF731340FB623B68DB881A46FB6A26
:101B90001343FB62FB6A9AB27B681A827B689B895B
:101BA0009BB2FB62FA6A4EF6F3131340FB623B688A
:101BB0009A883B681B8913439AB23B685B8913433D
:101BC0009BB21A46FB6A1343FB62FB6A9AB27B68BC
:101BD0009A817B689B8A9BB2FB62FA6A4FF6FF434D
:101BE0001340FB623B689B891A46FB6A1343FB6206
:101BF000FB6A9AB27B689A8207F108031846FFF7DE
:101C0000B9FCFB692E4A934202D17B69BB6201E0B9
:101C10003B69BB627B689B899BB21BB2002B0CDAD1
:101C2000BA6A13469B0013449A001A443B681B6827
:101C30005B00B2FBF3F37B620BE0BA6A13469B00D6
:101C400013449A001A443B681B689B00B2FBF3F3F1
:101C50007B627B6A1B4AA2FB03235B091B01FB62BD
:101C6000FB6A1B09642202FB03F37A6AD31A3B6204
:101C70007B689B899BB21BB2002B0CDA3B6ADB00B2
:101C80003233104AA2FB03235B0903F00703FA6A0D
:101C90001343FB620BE03B6A1B013233094AA2FB90
:101CA00003235B0903F00F03FA6A1343FB62FB6A29
:101CB0009AB27B681A8100BF3037BD4680BD00BF35
:101CC000003801401F85EB5180B483B000AF7860CD
:101CD0000B46FB70FB78002B08D07B689B899BB27E
:101CE00043F400539AB27B689A8107E07B689B8932
:101CF0009BB223F400539AB27B689A8100BF0C37E1
:101D0000BD4680BC704700BF80B483B000AF786030
:101D10000B467B807B88C3F308039AB27B689A806A
:101D200000BF0C37BD4680BC704700BF80B485B093
:101D300000AF78600B467B800023FB737B681B88B9
:101D40009AB27B8813409BB2002B02D00123FB7315
:101D500001E00023FB73FB7B18461437BD4680BCB3
:101D6000704700BF80B487B000AF78600B467B80BF
:101D70000023FB6000237B610023BB600023FB7416
:101D80007B88DBB25B09DBB2BB607B8803F01F039F
:101D90007B6101227B6902FA03F37B61BB68012B43
:101DA00007D17B689B899BB21A467B6913407B6194
:101DB00011E0BB68022B07D17B681B8A9BB21A46D5
:101DC0007B6913407B6106E07B689B8A9BB21A4665
:101DD0007B6913407B617B881B0A9BB2FB600122FD
:101DE000FB6802FA03F3FB607B681B889BB21A4610
:101DF000FB681340FB607B69002B05D0FB68002B60
:101E000002D00123FB7401E00023FB74FB7C184625
:101E10001C37BD4680BC704780B500AF012104204F
:101E2000FFF758FC264B0022DA70254B07221A8058
:101E300023492448FFF790F84FF40040FFF77EFB5A
:101E400001214FF40070FFF745FC1F4B00221A6080
:101E50001D4B00221A711C4B01225A711A4B4FF470
:101E600060229A60184B0022DA60174B01221A7424
:101E70000323012201211548FFF77CFD1249134875
:101E8000FFF79EFC01211148FFF7ECFC0F48FFF71C
:101E900005FD00BF0D48FFF711FD0346002BF9D1EA
:101EA0000A48FFF723FD00BF0848FFF72FFD034650
:101EB000002BF9D101210548FFF7D4FC00BF80BDFC
:101EC0006400002000080140880000200024014038
:101ED00080B582B000AF0346FB71F979032301227C
:101EE0000B48FFF747FD01210948FFF727FD00BF19
:101EF00002210748FFF714FE0346002BF8D00448E0
:101F0000FFF702FE034618460837BD4680BD00BFF6
:101F10000024014080B500AFFFF77EFF00BF80BD09
:101F200090B593B000AF00237B6422E00120FFF75F
:101F3000CFFF03461A467B6C5B0007F148010B4458
:101F400023F8482C0120FEF767F97B6C5B0007F152
:101F50004802134433F8483C184600F079FE034623
:101F60001946386C00F0C0FD03463B647B6C0133BE
:101F70007B647B6C092BD9DD2B49386C00F070FF3A
:101F800003463B644FF08B41386C00F069FF034619
:101F90002649184600F0B0FE0346FB63F86B00F0DC
:101FA000C7FA1BA3D3E9002300F016FB03460C4637
:101FB0001846214618A3D3E9002300F059F9034637
:101FC0000C461A4623464FF00000194900F02EFC3B
:101FD00003460C461846214611A3D3E9002300F01E
:101FE00047F903460C461846214600F027FD0346F4
:101FF0003B64386C00F0D0FF034619460D48FEF7ED
:10200000BBFA00BF4C37BD4690BD00BFAFF30080A8
:10201000304CA60A4625A53F158C4AEA0434713F88
:10202000E17A14AE47E1DA3F000020410000A04011
:102030000000F03F0038014090B593B000AF00239E
:102040007B6422E00220FFF743FF03461A467B6CC5
:102050005B0007F148010B4423F8482C0120FEF7F0
:10206000DBF87B6C5B0007F14802134433F8483C13
:10207000184600F0EDFD03461946386C00F034FDBB
:1020800003463B647B6C01337B647B6C092BD9DD9D
:102090002B49386C00F0E4FE03463B644FF08B4163
:1020A000386C00F0DDFE03462649184600F024FE99
:1020B0000346FB63F86B00F03BFA1BA3D3E9002354
:1020C00000F08AFA03460C461846214618A3D3E9C5
:1020D000002300F0CDF803460C461A4623464FF085
:1020E0000000194900F0A2FB03460C4618462146A1
:1020F00011A3D3E9002300F0BBF803460C461846B1
:10210000214600F09BFC03463B64386C00F044FF22
:10211000034619460D48FEF72FFA00BF4C37BD465F
:1021200090BD00BFAFF30080304CA60A4625A53F06
:10213000158C4AEA0434713FE17A14AE47E1DA3F84
:10214000000020410000A0400000F03F00380140A6
:1021500090B593B000AF00237B6422E00020FFF72E
:10216000B7FE03461A467B6C5B0007F148010B443F
:1021700023F8482C0120FEF74FF87B6C5B0007F139
:102180004802134433F8483C184600F061FD03460A
:102190001946386C00F0A8FC03463B647B6C0133A5
:1021A0007B647B6C092BD9DD2B49386C00F058FE21
:1021B00003463B644FF08B41386C00F051FE034600
:1021C0002649184600F098FD0346FB63F86B00F0C3
:1021D000AFF91BA3D3E9002300F0FEF903460C4638
:1021E0001846214618A3D3E9002300F041F803461E
:1021F0000C461A4623464FF00000194900F016FB22
:1022000003460C461846214611A3D3E9002300F0EB
:102210002FF803460C461846214600F00FFC0346F3
:102220003B64386C00F0B8FE034619460D48FEF7D3
:10223000A3F900BF4C37BD4690BD00BFAFF300808F
:10224000304CA60A4625A53F158C4AEA0434713F56
:10225000E17A14AE47E1DA3F000020410000A040DF
:102260000000F03F0038014081F0004102E000BF73
:1022700083F0004330B54FEA41044FEA430594EA46
:10228000050F08BF90EA020F1FBF54EA000C55EA81
:10229000020C7FEA645C7FEA655C00F0E2804FEA52
:1022A0005454D4EB5555B8BF6D420CDD2C4480EA34
:1022B000020281EA030382EA000083EA010180EA64
:1022C000020281EA0303362D88BF30BD11F0004FB2
:1022D0004FEA01314FF4801C4CEA113102D04042E8
:1022E00061EB410113F0004F4FEA03334CEA133323
:1022F00002D0524263EB430394EA050F00F0A7803B
:10230000A4F10104D5F1200E0DDB02FA0EFC22FA35
:1023100005F2801841F1000103FA0EF2801843FA29
:1023200005F359410EE0A5F120050EF1200E012A1A
:1023300003FA0EFC28BF4CF0020C43FA05F3C01858
:1023400051EBE37101F0004507D54FF0000EDCF1D1
:10235000000C7EEB00006EEB0101B1F5801F1BD37A
:10236000B1F5001F0CD349085FEA30004FEA3C0C7E
:1023700004F101044FEA445212F5800F80F09A8074
:10238000BCF1004F08BF5FEA500C50F1000041EB78
:10239000045141EA050130BD5FEA4C0C404141EB7C
:1023A000010111F4801FA4F10104E9D191F0000FA3
:1023B00004BF01460020B1FA81F308BF2033A3F126
:1023C0000B03B3F120020CDA0C3208DD02F1140C1D
:1023D000C2F10C0201FA0CF021FA02F10CE002F158
:1023E0001402D8BFC2F1200C01FA02F120FA0CFC51
:1023F000DCBF41EA0C019040E41AA2BF01EB04519A
:10240000294330BD6FEA04041F3C1CDA0C340EDC97
:1024100004F11404C4F1200220FA04F001FA02F3DA
:1024200040EA030021FA04F345EA030130BDC4F198
:102430000C04C4F1200220FA02F001FA04F340EA8D
:102440000300294630BD21FA04F0294630BD94F03E
:10245000000F83F4801306BF81F480110134013D25
:102460004EE77FEA645C18BF7FEA655C29D094EA96
:10247000050F08BF90EA020F05D054EA000C04BF14
:102480001946104630BD91EA030F1EBF00210020FF
:1024900030BD5FEA545C05D14000494128BF41F09E
:1024A000004130BD14F580043CBF01F5801130BD02
:1024B00001F0004545F0FE4141F470014FF000008D
:1024C00030BD7FEA645C1ABF194610467FEA655C3E
:1024D0001CBF0B46024650EA013406BF52EA0335E0
:1024E00091EA030F41F4002130BD00BF90F0000FCE
:1024F00004BF0021704730B54FF4806404F132040A
:102500004FF000054FF0000150E700BF90F0000FC2
:1025100004BF0021704730B54FF4806404F13204E9
:1025200010F0004548BF40424FF000013EE700BFB9
:1025300042004FEAE2014FEA31014FEA02701FBF49
:1025400012F07F4393F07F4F81F06051704792F01B
:10255000000F14BF93F07F4F704730B54FF4607495
:1025600001F0004521F0004120E700BF50EA0102E0
:1025700008BF704730B54FF000050AE050EA01028D
:1025800008BF704730B511F0004502D5404261EBFD
:1025900041014FF4806404F132045FEA915C3FF43E
:1025A000DCAE4FF003025FEADC0C18BF03325FEAD7
:1025B000DC0C18BF033202EBDC02C2F1200300FA8C
:1025C00003FC20FA02F001FA03FE40EA0E0021FAB1
:1025D00002F11444C1E600BF70B54FF0FF0C4CF49B
:1025E000E06C1CEA11541DBF1CEA135594EA0C0F51
:1025F00095EA0C0F00F0DEF82C4481EA030621EA8C
:102600004C5123EA4C5350EA013518BF52EA0335C6
:1026100041F4801143F4801338D0A0FB02CE4FF078
:102620000005E1FB02E506F00042E0FB03E54FF0A8
:102630000006E1FB03569CF0000F18BF4EF0010EA0
:10264000A4F1FF04B6F5007F64F5407404D25FEA9C
:102650004E0E6D4146EB060642EAC62141EA55514F
:102660004FEAC52040EA5E504FEACE2EB4F1FD0C91
:1026700088BFBCF5E06F1ED8BEF1004F08BF5FEA0F
:10268000500E50F1000041EB045170BD06F00046C1
:1026900046EA010140EA020081EA0301B4EB5C046E
:1026A000C2BFD4EB0C0541EA045170BD41F4801166
:1026B0004FF0000E013C00F3AB8014F1360FDEBF8B
:1026C000002001F0004170BDC4F10004203C35DA67
:1026D0000C341BDC04F11404C4F1200500FA05F3EA
:1026E00020FA04F001FA05F240EA020001F000428B
:1026F00021F0004110EBD37021FA04F642EB060101
:102700005EEA430E08BF20EAD37070BDC4F10C042A
:10271000C4F1200500FA04F320FA05F001FA04F2EE
:1027200040EA020001F0004110EBD37041F10001DA
:102730005EEA430E08BF20EAD37070BDC4F12005E5
:1027400000FA05F24EEA020E20FA04F301FA05F24D
:1027500043EA020321FA04F001F0004121FA04F2F5
:1027600020EA020000EBD3705EEA430E08BF20EAC5
:10277000D37070BD94F0000F0FD101F000464000FF
:1027800041EB010111F4801F08BF013CF7D041EA81
:10279000060195F0000F18BF704703F00046520085
:1027A00043EB030313F4801F08BF013DF7D043EA56
:1027B0000603704794EA0C0F0CEA135518BF95EA0C
:1027C0000C0F0CD050EA410618BF52EA4306D1D193
:1027D00081EA030101F000414FF0000070BD50EAB2
:1027E000410606BF1046194652EA430619D094EA3C
:1027F0000C0F02D150EA013613D195EA0C0F05D126
:1028000052EA03361CBF104619460AD181EA030179
:1028100001F0004141F0FE4141F470014FF0000031
:1028200070BD41F0FE4141F4780170BD70B54FF0CC
:10283000FF0C4CF4E06C1CEA11541DBF1CEA13554C
:1028400094EA0C0F95EA0C0F00F0A7F8A4EB05042E
:1028500081EA030E52EA03354FEA013100F0888025
:102860004FEA03334FF0805545EA131343EA1263EE
:102870004FEA022245EA111545EA10654FEA0026A3
:102880000EF000419D4208BF964244F1FD0404F55C
:10289000407402D25B084FEA3202B61A65EB0305B8
:1028A0005B084FEA32024FF480104FF4002CB6EB75
:1028B000020E75EB030E22BFB61A754640EA0C00F5
:1028C0005B084FEA3202B6EB020E75EB030E22BF35
:1028D000B61A754640EA5C005B084FEA3202B6EB76
:1028E000020E75EB030E22BFB61A754640EA9C0035
:1028F0005B084FEA3202B6EB020E75EB030E22BF05
:10290000B61A754640EADC0055EA060E18D04FEAC2
:10291000051545EA16754FEA06164FEAC30343EA62
:1029200052734FEAC2025FEA1C1CC0D111F4801F2F
:102930000BD141EA00014FF000004FF0004CB6E728
:1029400011F4801F04BF01430020B4F1FD0C88BFC7
:10295000BCF5E06F3FF6AFAEB5EB030C04BFB6EBD2
:10296000020C5FEA500C50F1000041EB045170BDC5
:102970000EF0004E4EEA113114EB5C04C2BFD4EBF2
:102980000C0541EA045170BD41F480114FF0000E76
:10299000013C90E645EA060E8DE60CEA135594EAF2
:1029A0000C0F08BF95EA0C0F3FF43BAF94EA0C0FF5
:1029B0000AD150EA01347FF434AF95EA0C0F7FF46A
:1029C00025AF104619462CE795EA0C0F06D152EABE
:1029D00003353FF4FDAE1046194622E750EA4106A2
:1029E00018BF52EA43067FF4C5AE50EA41047FF4B3
:1029F0000DAF52EA43057FF4EBAE12E74A0011D265
:102A000012F5001211D20DD56FF47873B3EB625248
:102A10000ED44FEAC12343F0004343EA505323FA54
:102A200002F070474FF00000704750EA013002D1C9
:102A30004FF0FF3070474FF0000070474FEA4102FF
:102A4000B2F1E04324BFB3F5001CDCF1FE5C0DD90C
:102A500001F0004C4FEAC0024CEA5070B2F1004F56
:102A600040EB830008BF20F00100704711F0804F59
:102A700021D113F13872BCBF01F00040704741F41E
:102A800080114FEA5252C2F11802C2F1200C10FA22
:102A90000CF320FA02F018BF40F001004FEAC12306
:102AA0004FEAD32303FA0CFC40EA0C0023FA02F3AA
:102AB0004FEA4303CCE77FEA625307D150EA013380
:102AC0001EBF4FF0FE4040F44000704701F0004050
:102AD00040F0FE4040F40000704700BF80F000402E
:102AE00002E000BF81F0004142001FBF5FEA4103E6
:102AF00092EA030F7FEA226C7FEA236C6AD04FEAE6
:102B00001262D2EB1363C1BFD2184140484041402A
:102B1000B8BF5B42192B88BF704710F0004F40F4DC
:102B2000000020F07F4018BF404211F0004F41F4F8
:102B3000000121F07F4118BF494292EA030F3FD0C4
:102B4000A2F1010241FA03FC10EB0C00C3F12003D7
:102B500001FA03F100F0004302D5494260EB400066
:102B6000B0F5000F13D3B0F1807F06D340084FEAD1
:102B7000310102F10102FE2A51D2B1F1004F40EBC6
:102B8000C25008BF20F0010040EA0300704749002E
:102B900040EB000010F4000FA2F10102EDD1B0FAF9
:102BA00080FCACF1080CB2EB0C0200FA0CF0AABFEE
:102BB00000EBC25052421843BCBFD040184370478C
:102BC00092F0000F81F4000106BF80F40000013292
:102BD000013BB5E74FEA41037FEA226C18BF7FEA69
:102BE000236C21D092EA030F04D092F0000F08BFAB
:102BF0000846704790EA010F1CBF0020704712F092
:102C00007F4F04D1400028BF40F00040704712F1D0
:102C100000723CBF00F50000704700F0004343F035
:102C2000FE4040F4000070477FEA226216BF08466B
:102C30007FEA23630146420206BF5FEA412390EA2E
:102C4000010F40F4800070474FF0000304E000BF24
:102C500010F0004348BF40425FEA000C08BF7047D5
:102C600043F0964301464FF000001CE050EA010299
:102C700008BF70474FF000030AE000BF50EA0102AE
:102C800008BF704711F0004302D5404261EB41019B
:102C90005FEA010C02BF84460146002043F0B643C0
:102CA00008BFA3F18053A3F50003BCFA8CF2083AE5
:102CB000A3EBC25310DB01FA02FC634400FA02FCEE
:102CC000C2F12002BCF1004F20FA02F243EB0200F5
:102CD00008BF20F00100704702F1200201FA02FC57
:102CE000C2F1200250EA4C0021FA02F243EB02004A
:102CF00008BF20EADC7070474FF0FF0C1CEAD0528E
:102D00001EBF1CEAD15392EA0C0F93EA0C0F6FD04E
:102D10001A4480EA010C400218BF5FEA41211ED02C
:102D20004FF0006343EA501043EA5111A0FB013118
:102D30000CF00040B1F5000F3EBF490041EAD371ED
:102D40005B0040EA010062F17F02FD2A1DD8B3F169
:102D5000004F40EBC25008BF20F00100704790F0D8
:102D6000000F0CF0004C08BF49024CEA502040EA2A
:102D700051207F3AC2BFD2F1FF0340EAC2507047F0
:102D800040F400004FF00003013A5DDC12F1190F2E
:102D9000DCBF00F000407047C2F10002410021FAA0
:102DA00002F1C2F1200200FA02FC5FEA310040F1B8
:102DB000000053EA4C0308BF20EADC70704792F031
:102DC000000F00F0004C02BF400010F4000F013A69
:102DD000F9D040EA0C0093F0000F01F0004C02BF64
:102DE000490011F4000F013BF9D041EA0C018FE7D3
:102DF0000CEAD15392EA0C0F18BF93EA0C0F0AD0D9
:102E000030F0004C18BF31F0004CD8D180EA0100FE
:102E100000F00040704790F0000F17BF90F0004F97
:102E2000084691F0000F91F0004F14D092EA0C0F79
:102E300001D142020FD193EA0C0F03D14B0218BF0C
:102E4000084608D180EA010000F0004040F0FE4052
:102E500040F40000704740F0FE4040F440007047EE
:102E60004FF0FF0C1CEAD0521EBF1CEAD15392EA6D
:102E70000C0F93EA0C0F69D0A2EB030280EA010C5D
:102E800049024FEA402037D04FF0805343EA1111F6
:102E900043EA10130CF000408B4238BF5B0042F154
:102EA0007D024FF4000C8B4224BF5B1A40EA0C00F9
:102EB000B3EB510F24BFA3EB510340EA5C00B3EB2B
:102EC000910F24BFA3EB910340EA9C00B3EBD10F19
:102ED00024BFA3EBD10340EADC001B0118BF5FEA6B
:102EE0001C1CE0D1FD2A3FF650AF8B4240EBC25094
:102EF00008BF20F0010070470CF0004C4CEA502055
:102F00007F32C2BFD2F1FF0340EAC250704740F4A3
:102F100000004FF00003013A37E792F0000F00F095
:102F2000004C02BF400010F4000F013AF9D040EA13
:102F30000C0093F0000F01F0004C02BF490011F4A7
:102F4000000F013BF9D041EA0C0195E70CEAD1539F
:102F500092EA0C0F08D142027FF47DAF93EA0C0F86
:102F60007FF470AF084676E793EA0C0F04D14B026A
:102F70003FF44CAF08466EE730F0004C18BF31F01C
:102F8000004CCAD130F000427FF45CAF31F0004316
:102F90007FF43CAF5FE700BF4FEA4002B2F1FE4F63
:102FA0000FD34FF09E03B3EB12620DD94FEA00230B
:102FB00043F0004310F0004F23FA02F018BF4042E4
:102FC00070474FF00000704712F1610F01D14202CB
:102FD00005D110F0004008BF6FF0004070474FF07F
:042FE0000000704736
:102FE40000A24A04000000000000000001020304E3
:102FF400060708093C0000003E0000000000000035
:103004000102030401020304060708090204060876
:0400000508000000EF
:00000001FF
